{
	"contracts/tweets.sol": {
		"TwitterContract": {
			"abi": [
				{
					"anonymous": false,
					"inputs": [
						{
							"indexed": false,
							"internalType": "address",
							"name": "recipient",
							"type": "address"
						},
						{
							"indexed": false,
							"internalType": "uint256",
							"name": "tweetId",
							"type": "uint256"
						}
					],
					"name": "AddTweet",
					"type": "event"
				},
				{
					"anonymous": false,
					"inputs": [
						{
							"indexed": false,
							"internalType": "uint256",
							"name": "tweetId",
							"type": "uint256"
						},
						{
							"indexed": false,
							"internalType": "bool",
							"name": "isDeleted",
							"type": "bool"
						}
					],
					"name": "DeleteTweet",
					"type": "event"
				},
				{
					"inputs": [
						{
							"internalType": "string",
							"name": "tweetText",
							"type": "string"
						},
						{
							"internalType": "bool",
							"name": "isDeleted",
							"type": "bool"
						}
					],
					"name": "addTweet",
					"outputs": [],
					"stateMutability": "nonpayable",
					"type": "function"
				},
				{
					"inputs": [
						{
							"internalType": "uint256",
							"name": "tweetId",
							"type": "uint256"
						},
						{
							"internalType": "bool",
							"name": "isDeleted",
							"type": "bool"
						}
					],
					"name": "deleteTweet",
					"outputs": [],
					"stateMutability": "nonpayable",
					"type": "function"
				},
				{
					"inputs": [],
					"name": "getAllTweets",
					"outputs": [
						{
							"components": [
								{
									"internalType": "uint256",
									"name": "id",
									"type": "uint256"
								},
								{
									"internalType": "address",
									"name": "username",
									"type": "address"
								},
								{
									"internalType": "string",
									"name": "tweetText",
									"type": "string"
								},
								{
									"internalType": "bool",
									"name": "isDeleted",
									"type": "bool"
								}
							],
							"internalType": "struct TwitterContract.Tweet[]",
							"name": "",
							"type": "tuple[]"
						}
					],
					"stateMutability": "view",
					"type": "function"
				},
				{
					"inputs": [],
					"name": "getMyTweets",
					"outputs": [
						{
							"components": [
								{
									"internalType": "uint256",
									"name": "id",
									"type": "uint256"
								},
								{
									"internalType": "address",
									"name": "username",
									"type": "address"
								},
								{
									"internalType": "string",
									"name": "tweetText",
									"type": "string"
								},
								{
									"internalType": "bool",
									"name": "isDeleted",
									"type": "bool"
								}
							],
							"internalType": "struct TwitterContract.Tweet[]",
							"name": "",
							"type": "tuple[]"
						}
					],
					"stateMutability": "view",
					"type": "function"
				}
			],
			"devdoc": {
				"kind": "dev",
				"methods": {},
				"version": 1
			},
			"evm": {
				"assembly": "    /* \"contracts/tweets.sol\":61:2092  contract TwitterContract {... */\n  mstore(0x40, 0x80)\n  callvalue\n  dup1\n  iszero\n  tag_1\n  jumpi\n  0x00\n  dup1\n  revert\ntag_1:\n  pop\n  dataSize(sub_0)\n  dup1\n  dataOffset(sub_0)\n  0x00\n  codecopy\n  0x00\n  return\nstop\n\nsub_0: assembly {\n        /* \"contracts/tweets.sol\":61:2092  contract TwitterContract {... */\n      mstore(0x40, 0x80)\n      callvalue\n      dup1\n      iszero\n      tag_1\n      jumpi\n      0x00\n      dup1\n      revert\n    tag_1:\n      pop\n      jumpi(tag_2, lt(calldatasize, 0x04))\n      shr(0xe0, calldataload(0x00))\n      dup1\n      0x53256135\n      eq\n      tag_3\n      jumpi\n      dup1\n      0xaefedbc2\n      eq\n      tag_4\n      jumpi\n      dup1\n      0xe580339f\n      eq\n      tag_5\n      jumpi\n      dup1\n      0xf0312a37\n      eq\n      tag_6\n      jumpi\n    tag_2:\n      0x00\n      dup1\n      revert\n        /* \"contracts/tweets.sol\":713:1230  function getAllTweets() external view returns (Tweet[] memory) {... */\n    tag_3:\n      tag_7\n      tag_8\n      jump\t// in\n    tag_7:\n      mload(0x40)\n      tag_9\n      swap2\n      swap1\n      tag_10\n      jump\t// in\n    tag_9:\n      mload(0x40)\n      dup1\n      swap2\n      sub\n      swap1\n      return\n        /* \"contracts/tweets.sol\":1274:1823  function getMyTweets() external view returns (Tweet[] memory) {... */\n    tag_4:\n      tag_11\n      tag_12\n      jump\t// in\n    tag_11:\n      mload(0x40)\n      tag_13\n      swap2\n      swap1\n      tag_10\n      jump\t// in\n    tag_13:\n      mload(0x40)\n      dup1\n      swap2\n      sub\n      swap1\n      return\n        /* \"contracts/tweets.sol\":399:671  function addTweet(string memory tweetText, bool isDeleted) external {... */\n    tag_5:\n      tag_14\n      0x04\n      dup1\n      calldatasize\n      sub\n      dup2\n      add\n      swap1\n      tag_15\n      swap2\n      swap1\n      tag_16\n      jump\t// in\n    tag_15:\n      tag_17\n      jump\t// in\n    tag_14:\n      stop\n        /* \"contracts/tweets.sol\":1861:2089  function deleteTweet(uint tweetId, bool isDeleted) external {... */\n    tag_6:\n      tag_18\n      0x04\n      dup1\n      calldatasize\n      sub\n      dup2\n      add\n      swap1\n      tag_19\n      swap2\n      swap1\n      tag_20\n      jump\t// in\n    tag_19:\n      tag_21\n      jump\t// in\n    tag_18:\n      stop\n        /* \"contracts/tweets.sol\":713:1230  function getAllTweets() external view returns (Tweet[] memory) {... */\n    tag_8:\n        /* \"contracts/tweets.sol\":760:774  Tweet[] memory */\n      0x60\n        /* \"contracts/tweets.sol\":786:810  Tweet[] memory temporary */\n      0x00\n        /* \"contracts/tweets.sol\":825:831  tweets */\n      dup1\n        /* \"contracts/tweets.sol\":825:838  tweets.length */\n      dup1\n      sload\n      swap1\n      pop\n        /* \"contracts/tweets.sol\":813:839  new Tweet[](tweets.length) */\n      0xffffffffffffffff\n      dup2\n      gt\n      iszero\n      tag_23\n      jumpi\n      mstore(0x00, 0x4e487b7100000000000000000000000000000000000000000000000000000000)\n      mstore(0x04, 0x41)\n      revert(0x00, 0x24)\n    tag_23:\n      mload(0x40)\n      swap1\n      dup1\n      dup3\n      mstore\n      dup1\n      0x20\n      mul\n      0x20\n      add\n      dup3\n      add\n      0x40\n      mstore\n      dup1\n      iszero\n      tag_24\n      jumpi\n      dup2\n      0x20\n      add\n    tag_25:\n      tag_26\n      tag_27\n      jump\t// in\n    tag_26:\n      dup2\n      mstore\n      0x20\n      add\n      swap1\n      0x01\n      swap1\n      sub\n      swap1\n      dup2\n      tag_25\n      jumpi\n      swap1\n      pop\n    tag_24:\n      pop\n        /* \"contracts/tweets.sol\":786:839  Tweet[] memory temporary = new Tweet[](tweets.length) */\n      swap1\n      pop\n        /* \"contracts/tweets.sol\":849:861  uint counter */\n      0x00\n        /* \"contracts/tweets.sol\":879:885  uint i */\n      dup1\n        /* \"contracts/tweets.sol\":875:1058  for(uint i=0; i<tweets.length; i++) {... */\n    tag_28:\n        /* \"contracts/tweets.sol\":891:897  tweets */\n      0x00\n        /* \"contracts/tweets.sol\":891:904  tweets.length */\n      dup1\n      sload\n      swap1\n      pop\n        /* \"contracts/tweets.sol\":889:890  i */\n      dup2\n        /* \"contracts/tweets.sol\":889:904  i<tweets.length */\n      lt\n        /* \"contracts/tweets.sol\":875:1058  for(uint i=0; i<tweets.length; i++) {... */\n      iszero\n      tag_29\n      jumpi\n        /* \"contracts/tweets.sol\":951:956  false */\n      0x00\n        /* \"contracts/tweets.sol\":928:956  tweets[i].isDeleted == false */\n      iszero\n      iszero\n        /* \"contracts/tweets.sol\":928:934  tweets */\n      0x00\n        /* \"contracts/tweets.sol\":935:936  i */\n      dup3\n        /* \"contracts/tweets.sol\":928:937  tweets[i] */\n      dup2\n      sload\n      dup2\n      lt\n      tag_31\n      jumpi\n      mstore(0x00, 0x4e487b7100000000000000000000000000000000000000000000000000000000)\n      mstore(0x04, 0x32)\n      revert(0x00, 0x24)\n    tag_31:\n      swap1\n      0x00\n      mstore\n      keccak256(0x00, 0x20)\n      swap1\n      0x04\n      mul\n      add\n        /* \"contracts/tweets.sol\":928:947  tweets[i].isDeleted */\n      0x03\n      add\n      0x00\n      swap1\n      sload\n      swap1\n      0x0100\n      exp\n      swap1\n      div\n      0xff\n      and\n        /* \"contracts/tweets.sol\":928:956  tweets[i].isDeleted == false */\n      iszero\n      iszero\n      eq\n        /* \"contracts/tweets.sol\":925:1048  if(tweets[i].isDeleted == false) {... */\n      iszero\n      tag_33\n      jumpi\n        /* \"contracts/tweets.sol\":997:1003  tweets */\n      0x00\n        /* \"contracts/tweets.sol\":1004:1005  i */\n      dup2\n        /* \"contracts/tweets.sol\":997:1006  tweets[i] */\n      dup2\n      sload\n      dup2\n      lt\n      tag_34\n      jumpi\n      mstore(0x00, 0x4e487b7100000000000000000000000000000000000000000000000000000000)\n      mstore(0x04, 0x32)\n      revert(0x00, 0x24)\n    tag_34:\n      swap1\n      0x00\n      mstore\n      keccak256(0x00, 0x20)\n      swap1\n      0x04\n      mul\n      add\n        /* \"contracts/tweets.sol\":976:1006  temporary[counter] = tweets[i] */\n      mload(0x40)\n      dup1\n      0x80\n      add\n      0x40\n      mstore\n      swap1\n      dup2\n      0x00\n      dup3\n      add\n      sload\n      dup2\n      mstore\n      0x20\n      add\n      0x01\n      dup3\n      add\n      0x00\n      swap1\n      sload\n      swap1\n      0x0100\n      exp\n      swap1\n      div\n      0xffffffffffffffffffffffffffffffffffffffff\n      and\n      0xffffffffffffffffffffffffffffffffffffffff\n      and\n      0xffffffffffffffffffffffffffffffffffffffff\n      and\n      dup2\n      mstore\n      0x20\n      add\n      0x02\n      dup3\n      add\n      dup1\n      sload\n      tag_36\n      swap1\n      tag_37\n      jump\t// in\n    tag_36:\n      dup1\n      0x1f\n      add\n      0x20\n      dup1\n      swap2\n      div\n      mul\n      0x20\n      add\n      mload(0x40)\n      swap1\n      dup2\n      add\n      0x40\n      mstore\n      dup1\n      swap3\n      swap2\n      swap1\n      dup2\n      dup2\n      mstore\n      0x20\n      add\n      dup3\n      dup1\n      sload\n      tag_38\n      swap1\n      tag_37\n      jump\t// in\n    tag_38:\n      dup1\n      iszero\n      tag_39\n      jumpi\n      dup1\n      0x1f\n      lt\n      tag_40\n      jumpi\n      0x0100\n      dup1\n      dup4\n      sload\n      div\n      mul\n      dup4\n      mstore\n      swap2\n      0x20\n      add\n      swap2\n      jump(tag_39)\n    tag_40:\n      dup3\n      add\n      swap2\n      swap1\n      0x00\n      mstore\n      keccak256(0x00, 0x20)\n      swap1\n    tag_41:\n      dup2\n      sload\n      dup2\n      mstore\n      swap1\n      0x01\n      add\n      swap1\n      0x20\n      add\n      dup1\n      dup4\n      gt\n      tag_41\n      jumpi\n      dup3\n      swap1\n      sub\n      0x1f\n      and\n      dup3\n      add\n      swap2\n    tag_39:\n      pop\n      pop\n      pop\n      pop\n      pop\n      dup2\n      mstore\n      0x20\n      add\n      0x03\n      dup3\n      add\n      0x00\n      swap1\n      sload\n      swap1\n      0x0100\n      exp\n      swap1\n      div\n      0xff\n      and\n      iszero\n      iszero\n      iszero\n      iszero\n      dup2\n      mstore\n      pop\n      pop\n        /* \"contracts/tweets.sol\":976:985  temporary */\n      dup4\n        /* \"contracts/tweets.sol\":986:993  counter */\n      dup4\n        /* \"contracts/tweets.sol\":976:994  temporary[counter] */\n      dup2\n      mload\n      dup2\n      lt\n      tag_42\n      jumpi\n      mstore(0x00, 0x4e487b7100000000000000000000000000000000000000000000000000000000)\n      mstore(0x04, 0x32)\n      revert(0x00, 0x24)\n    tag_42:\n      0x20\n      mul\n      0x20\n      add\n      add\n        /* \"contracts/tweets.sol\":976:1006  temporary[counter] = tweets[i] */\n      dup2\n      swap1\n      mstore\n      pop\n        /* \"contracts/tweets.sol\":1024:1033  counter++ */\n      dup2\n      dup1\n      tag_43\n      swap1\n      tag_44\n      jump\t// in\n    tag_43:\n      swap3\n      pop\n      pop\n        /* \"contracts/tweets.sol\":925:1048  if(tweets[i].isDeleted == false) {... */\n    tag_33:\n        /* \"contracts/tweets.sol\":906:909  i++ */\n      dup1\n      dup1\n      tag_45\n      swap1\n      tag_44\n      jump\t// in\n    tag_45:\n      swap2\n      pop\n      pop\n        /* \"contracts/tweets.sol\":875:1058  for(uint i=0; i<tweets.length; i++) {... */\n      jump(tag_28)\n    tag_29:\n      pop\n        /* \"contracts/tweets.sol\":1068:1089  Tweet[] memory result */\n      0x00\n        /* \"contracts/tweets.sol\":1104:1111  counter */\n      dup2\n        /* \"contracts/tweets.sol\":1092:1112  new Tweet[](counter) */\n      0xffffffffffffffff\n      dup2\n      gt\n      iszero\n      tag_46\n      jumpi\n      mstore(0x00, 0x4e487b7100000000000000000000000000000000000000000000000000000000)\n      mstore(0x04, 0x41)\n      revert(0x00, 0x24)\n    tag_46:\n      mload(0x40)\n      swap1\n      dup1\n      dup3\n      mstore\n      dup1\n      0x20\n      mul\n      0x20\n      add\n      dup3\n      add\n      0x40\n      mstore\n      dup1\n      iszero\n      tag_47\n      jumpi\n      dup2\n      0x20\n      add\n    tag_48:\n      tag_49\n      tag_27\n      jump\t// in\n    tag_49:\n      dup2\n      mstore\n      0x20\n      add\n      swap1\n      0x01\n      swap1\n      sub\n      swap1\n      dup2\n      tag_48\n      jumpi\n      swap1\n      pop\n    tag_47:\n      pop\n        /* \"contracts/tweets.sol\":1068:1112  Tweet[] memory result = new Tweet[](counter) */\n      swap1\n      pop\n        /* \"contracts/tweets.sol\":1126:1132  uint i */\n      0x00\n        /* \"contracts/tweets.sol\":1122:1201  for(uint i=0; i<counter; i++) {... */\n    tag_50:\n        /* \"contracts/tweets.sol\":1138:1145  counter */\n      dup3\n        /* \"contracts/tweets.sol\":1136:1137  i */\n      dup2\n        /* \"contracts/tweets.sol\":1136:1145  i<counter */\n      lt\n        /* \"contracts/tweets.sol\":1122:1201  for(uint i=0; i<counter; i++) {... */\n      iszero\n      tag_51\n      jumpi\n        /* \"contracts/tweets.sol\":1178:1187  temporary */\n      dup4\n        /* \"contracts/tweets.sol\":1188:1189  i */\n      dup2\n        /* \"contracts/tweets.sol\":1178:1190  temporary[i] */\n      dup2\n      mload\n      dup2\n      lt\n      tag_53\n      jumpi\n      mstore(0x00, 0x4e487b7100000000000000000000000000000000000000000000000000000000)\n      mstore(0x04, 0x32)\n      revert(0x00, 0x24)\n    tag_53:\n      0x20\n      mul\n      0x20\n      add\n      add\n      mload\n        /* \"contracts/tweets.sol\":1166:1172  result */\n      dup3\n        /* \"contracts/tweets.sol\":1173:1174  i */\n      dup3\n        /* \"contracts/tweets.sol\":1166:1175  result[i] */\n      dup2\n      mload\n      dup2\n      lt\n      tag_54\n      jumpi\n      mstore(0x00, 0x4e487b7100000000000000000000000000000000000000000000000000000000)\n      mstore(0x04, 0x32)\n      revert(0x00, 0x24)\n    tag_54:\n      0x20\n      mul\n      0x20\n      add\n      add\n        /* \"contracts/tweets.sol\":1166:1190  result[i] = temporary[i] */\n      dup2\n      swap1\n      mstore\n      pop\n        /* \"contracts/tweets.sol\":1147:1150  i++ */\n      dup1\n      dup1\n      tag_55\n      swap1\n      tag_44\n      jump\t// in\n    tag_55:\n      swap2\n      pop\n      pop\n        /* \"contracts/tweets.sol\":1122:1201  for(uint i=0; i<counter; i++) {... */\n      jump(tag_50)\n    tag_51:\n      pop\n        /* \"contracts/tweets.sol\":1217:1223  result */\n      dup1\n        /* \"contracts/tweets.sol\":1210:1223  return result */\n      swap4\n      pop\n      pop\n      pop\n      pop\n        /* \"contracts/tweets.sol\":713:1230  function getAllTweets() external view returns (Tweet[] memory) {... */\n      swap1\n      jump\t// out\n        /* \"contracts/tweets.sol\":1274:1823  function getMyTweets() external view returns (Tweet[] memory) {... */\n    tag_12:\n        /* \"contracts/tweets.sol\":1320:1334  Tweet[] memory */\n      0x60\n        /* \"contracts/tweets.sol\":1346:1370  Tweet[] memory temporary */\n      0x00\n        /* \"contracts/tweets.sol\":1385:1391  tweets */\n      dup1\n        /* \"contracts/tweets.sol\":1385:1398  tweets.length */\n      dup1\n      sload\n      swap1\n      pop\n        /* \"contracts/tweets.sol\":1373:1399  new Tweet[](tweets.length) */\n      0xffffffffffffffff\n      dup2\n      gt\n      iszero\n      tag_57\n      jumpi\n      mstore(0x00, 0x4e487b7100000000000000000000000000000000000000000000000000000000)\n      mstore(0x04, 0x41)\n      revert(0x00, 0x24)\n    tag_57:\n      mload(0x40)\n      swap1\n      dup1\n      dup3\n      mstore\n      dup1\n      0x20\n      mul\n      0x20\n      add\n      dup3\n      add\n      0x40\n      mstore\n      dup1\n      iszero\n      tag_58\n      jumpi\n      dup2\n      0x20\n      add\n    tag_59:\n      tag_60\n      tag_27\n      jump\t// in\n    tag_60:\n      dup2\n      mstore\n      0x20\n      add\n      swap1\n      0x01\n      swap1\n      sub\n      swap1\n      dup2\n      tag_59\n      jumpi\n      swap1\n      pop\n    tag_58:\n      pop\n        /* \"contracts/tweets.sol\":1346:1399  Tweet[] memory temporary = new Tweet[](tweets.length) */\n      swap1\n      pop\n        /* \"contracts/tweets.sol\":1409:1421  uint counter */\n      0x00\n        /* \"contracts/tweets.sol\":1439:1445  uint i */\n      dup1\n        /* \"contracts/tweets.sol\":1435:1651  for(uint i=0; i<tweets.length; i++) {... */\n    tag_61:\n        /* \"contracts/tweets.sol\":1451:1457  tweets */\n      0x00\n        /* \"contracts/tweets.sol\":1451:1464  tweets.length */\n      dup1\n      sload\n      swap1\n      pop\n        /* \"contracts/tweets.sol\":1449:1450  i */\n      dup2\n        /* \"contracts/tweets.sol\":1449:1464  i<tweets.length */\n      lt\n        /* \"contracts/tweets.sol\":1435:1651  for(uint i=0; i<tweets.length; i++) {... */\n      iszero\n      tag_62\n      jumpi\n        /* \"contracts/tweets.sol\":1507:1517  msg.sender */\n      caller\n        /* \"contracts/tweets.sol\":1488:1517  tweetToOwner[i] == msg.sender */\n      0xffffffffffffffffffffffffffffffffffffffff\n      and\n        /* \"contracts/tweets.sol\":1488:1500  tweetToOwner */\n      0x01\n        /* \"contracts/tweets.sol\":1488:1503  tweetToOwner[i] */\n      0x00\n        /* \"contracts/tweets.sol\":1501:1502  i */\n      dup4\n        /* \"contracts/tweets.sol\":1488:1503  tweetToOwner[i] */\n      dup2\n      mstore\n      0x20\n      add\n      swap1\n      dup2\n      mstore\n      0x20\n      add\n      0x00\n      keccak256\n      0x00\n      swap1\n      sload\n      swap1\n      0x0100\n      exp\n      swap1\n      div\n      0xffffffffffffffffffffffffffffffffffffffff\n      and\n        /* \"contracts/tweets.sol\":1488:1517  tweetToOwner[i] == msg.sender */\n      0xffffffffffffffffffffffffffffffffffffffff\n      and\n      eq\n        /* \"contracts/tweets.sol\":1488:1549  tweetToOwner[i] == msg.sender && tweets[i].isDeleted == false */\n      dup1\n      iszero\n      tag_64\n      jumpi\n      pop\n        /* \"contracts/tweets.sol\":1544:1549  false */\n      0x00\n        /* \"contracts/tweets.sol\":1521:1549  tweets[i].isDeleted == false */\n      iszero\n      iszero\n        /* \"contracts/tweets.sol\":1521:1527  tweets */\n      0x00\n        /* \"contracts/tweets.sol\":1528:1529  i */\n      dup3\n        /* \"contracts/tweets.sol\":1521:1530  tweets[i] */\n      dup2\n      sload\n      dup2\n      lt\n      tag_65\n      jumpi\n      mstore(0x00, 0x4e487b7100000000000000000000000000000000000000000000000000000000)\n      mstore(0x04, 0x32)\n      revert(0x00, 0x24)\n    tag_65:\n      swap1\n      0x00\n      mstore\n      keccak256(0x00, 0x20)\n      swap1\n      0x04\n      mul\n      add\n        /* \"contracts/tweets.sol\":1521:1540  tweets[i].isDeleted */\n      0x03\n      add\n      0x00\n      swap1\n      sload\n      swap1\n      0x0100\n      exp\n      swap1\n      div\n      0xff\n      and\n        /* \"contracts/tweets.sol\":1521:1549  tweets[i].isDeleted == false */\n      iszero\n      iszero\n      eq\n        /* \"contracts/tweets.sol\":1488:1549  tweetToOwner[i] == msg.sender && tweets[i].isDeleted == false */\n    tag_64:\n        /* \"contracts/tweets.sol\":1485:1641  if(tweetToOwner[i] == msg.sender && tweets[i].isDeleted == false) {... */\n      iszero\n      tag_67\n      jumpi\n        /* \"contracts/tweets.sol\":1590:1596  tweets */\n      0x00\n        /* \"contracts/tweets.sol\":1597:1598  i */\n      dup2\n        /* \"contracts/tweets.sol\":1590:1599  tweets[i] */\n      dup2\n      sload\n      dup2\n      lt\n      tag_68\n      jumpi\n      mstore(0x00, 0x4e487b7100000000000000000000000000000000000000000000000000000000)\n      mstore(0x04, 0x32)\n      revert(0x00, 0x24)\n    tag_68:\n      swap1\n      0x00\n      mstore\n      keccak256(0x00, 0x20)\n      swap1\n      0x04\n      mul\n      add\n        /* \"contracts/tweets.sol\":1569:1599  temporary[counter] = tweets[i] */\n      mload(0x40)\n      dup1\n      0x80\n      add\n      0x40\n      mstore\n      swap1\n      dup2\n      0x00\n      dup3\n      add\n      sload\n      dup2\n      mstore\n      0x20\n      add\n      0x01\n      dup3\n      add\n      0x00\n      swap1\n      sload\n      swap1\n      0x0100\n      exp\n      swap1\n      div\n      0xffffffffffffffffffffffffffffffffffffffff\n      and\n      0xffffffffffffffffffffffffffffffffffffffff\n      and\n      0xffffffffffffffffffffffffffffffffffffffff\n      and\n      dup2\n      mstore\n      0x20\n      add\n      0x02\n      dup3\n      add\n      dup1\n      sload\n      tag_70\n      swap1\n      tag_37\n      jump\t// in\n    tag_70:\n      dup1\n      0x1f\n      add\n      0x20\n      dup1\n      swap2\n      div\n      mul\n      0x20\n      add\n      mload(0x40)\n      swap1\n      dup2\n      add\n      0x40\n      mstore\n      dup1\n      swap3\n      swap2\n      swap1\n      dup2\n      dup2\n      mstore\n      0x20\n      add\n      dup3\n      dup1\n      sload\n      tag_71\n      swap1\n      tag_37\n      jump\t// in\n    tag_71:\n      dup1\n      iszero\n      tag_72\n      jumpi\n      dup1\n      0x1f\n      lt\n      tag_73\n      jumpi\n      0x0100\n      dup1\n      dup4\n      sload\n      div\n      mul\n      dup4\n      mstore\n      swap2\n      0x20\n      add\n      swap2\n      jump(tag_72)\n    tag_73:\n      dup3\n      add\n      swap2\n      swap1\n      0x00\n      mstore\n      keccak256(0x00, 0x20)\n      swap1\n    tag_74:\n      dup2\n      sload\n      dup2\n      mstore\n      swap1\n      0x01\n      add\n      swap1\n      0x20\n      add\n      dup1\n      dup4\n      gt\n      tag_74\n      jumpi\n      dup3\n      swap1\n      sub\n      0x1f\n      and\n      dup3\n      add\n      swap2\n    tag_72:\n      pop\n      pop\n      pop\n      pop\n      pop\n      dup2\n      mstore\n      0x20\n      add\n      0x03\n      dup3\n      add\n      0x00\n      swap1\n      sload\n      swap1\n      0x0100\n      exp\n      swap1\n      div\n      0xff\n      and\n      iszero\n      iszero\n      iszero\n      iszero\n      dup2\n      mstore\n      pop\n      pop\n        /* \"contracts/tweets.sol\":1569:1578  temporary */\n      dup4\n        /* \"contracts/tweets.sol\":1579:1586  counter */\n      dup4\n        /* \"contracts/tweets.sol\":1569:1587  temporary[counter] */\n      dup2\n      mload\n      dup2\n      lt\n      tag_75\n      jumpi\n      mstore(0x00, 0x4e487b7100000000000000000000000000000000000000000000000000000000)\n      mstore(0x04, 0x32)\n      revert(0x00, 0x24)\n    tag_75:\n      0x20\n      mul\n      0x20\n      add\n      add\n        /* \"contracts/tweets.sol\":1569:1599  temporary[counter] = tweets[i] */\n      dup2\n      swap1\n      mstore\n      pop\n        /* \"contracts/tweets.sol\":1617:1626  counter++ */\n      dup2\n      dup1\n      tag_76\n      swap1\n      tag_44\n      jump\t// in\n    tag_76:\n      swap3\n      pop\n      pop\n        /* \"contracts/tweets.sol\":1485:1641  if(tweetToOwner[i] == msg.sender && tweets[i].isDeleted == false) {... */\n    tag_67:\n        /* \"contracts/tweets.sol\":1466:1469  i++ */\n      dup1\n      dup1\n      tag_77\n      swap1\n      tag_44\n      jump\t// in\n    tag_77:\n      swap2\n      pop\n      pop\n        /* \"contracts/tweets.sol\":1435:1651  for(uint i=0; i<tweets.length; i++) {... */\n      jump(tag_61)\n    tag_62:\n      pop\n        /* \"contracts/tweets.sol\":1661:1682  Tweet[] memory result */\n      0x00\n        /* \"contracts/tweets.sol\":1697:1704  counter */\n      dup2\n        /* \"contracts/tweets.sol\":1685:1705  new Tweet[](counter) */\n      0xffffffffffffffff\n      dup2\n      gt\n      iszero\n      tag_78\n      jumpi\n      mstore(0x00, 0x4e487b7100000000000000000000000000000000000000000000000000000000)\n      mstore(0x04, 0x41)\n      revert(0x00, 0x24)\n    tag_78:\n      mload(0x40)\n      swap1\n      dup1\n      dup3\n      mstore\n      dup1\n      0x20\n      mul\n      0x20\n      add\n      dup3\n      add\n      0x40\n      mstore\n      dup1\n      iszero\n      tag_79\n      jumpi\n      dup2\n      0x20\n      add\n    tag_80:\n      tag_81\n      tag_27\n      jump\t// in\n    tag_81:\n      dup2\n      mstore\n      0x20\n      add\n      swap1\n      0x01\n      swap1\n      sub\n      swap1\n      dup2\n      tag_80\n      jumpi\n      swap1\n      pop\n    tag_79:\n      pop\n        /* \"contracts/tweets.sol\":1661:1705  Tweet[] memory result = new Tweet[](counter) */\n      swap1\n      pop\n        /* \"contracts/tweets.sol\":1719:1725  uint i */\n      0x00\n        /* \"contracts/tweets.sol\":1715:1794  for(uint i=0; i<counter; i++) {... */\n    tag_82:\n        /* \"contracts/tweets.sol\":1731:1738  counter */\n      dup3\n        /* \"contracts/tweets.sol\":1729:1730  i */\n      dup2\n        /* \"contracts/tweets.sol\":1729:1738  i<counter */\n      lt\n        /* \"contracts/tweets.sol\":1715:1794  for(uint i=0; i<counter; i++) {... */\n      iszero\n      tag_83\n      jumpi\n        /* \"contracts/tweets.sol\":1771:1780  temporary */\n      dup4\n        /* \"contracts/tweets.sol\":1781:1782  i */\n      dup2\n        /* \"contracts/tweets.sol\":1771:1783  temporary[i] */\n      dup2\n      mload\n      dup2\n      lt\n      tag_85\n      jumpi\n      mstore(0x00, 0x4e487b7100000000000000000000000000000000000000000000000000000000)\n      mstore(0x04, 0x32)\n      revert(0x00, 0x24)\n    tag_85:\n      0x20\n      mul\n      0x20\n      add\n      add\n      mload\n        /* \"contracts/tweets.sol\":1759:1765  result */\n      dup3\n        /* \"contracts/tweets.sol\":1766:1767  i */\n      dup3\n        /* \"contracts/tweets.sol\":1759:1768  result[i] */\n      dup2\n      mload\n      dup2\n      lt\n      tag_86\n      jumpi\n      mstore(0x00, 0x4e487b7100000000000000000000000000000000000000000000000000000000)\n      mstore(0x04, 0x32)\n      revert(0x00, 0x24)\n    tag_86:\n      0x20\n      mul\n      0x20\n      add\n      add\n        /* \"contracts/tweets.sol\":1759:1783  result[i] = temporary[i] */\n      dup2\n      swap1\n      mstore\n      pop\n        /* \"contracts/tweets.sol\":1740:1743  i++ */\n      dup1\n      dup1\n      tag_87\n      swap1\n      tag_44\n      jump\t// in\n    tag_87:\n      swap2\n      pop\n      pop\n        /* \"contracts/tweets.sol\":1715:1794  for(uint i=0; i<counter; i++) {... */\n      jump(tag_82)\n    tag_83:\n      pop\n        /* \"contracts/tweets.sol\":1810:1816  result */\n      dup1\n        /* \"contracts/tweets.sol\":1803:1816  return result */\n      swap4\n      pop\n      pop\n      pop\n      pop\n        /* \"contracts/tweets.sol\":1274:1823  function getMyTweets() external view returns (Tweet[] memory) {... */\n      swap1\n      jump\t// out\n        /* \"contracts/tweets.sol\":399:671  function addTweet(string memory tweetText, bool isDeleted) external {... */\n    tag_17:\n        /* \"contracts/tweets.sol\":477:489  uint tweetId */\n      0x00\n        /* \"contracts/tweets.sol\":492:498  tweets */\n      dup1\n        /* \"contracts/tweets.sol\":492:505  tweets.length */\n      dup1\n      sload\n      swap1\n      pop\n        /* \"contracts/tweets.sol\":477:505  uint tweetId = tweets.length */\n      swap1\n      pop\n        /* \"contracts/tweets.sol\":515:521  tweets */\n      0x00\n        /* \"contracts/tweets.sol\":527:575  Tweet(tweetId, msg.sender, tweetText, isDeleted) */\n      mload(0x40)\n      dup1\n      0x80\n      add\n      0x40\n      mstore\n      dup1\n        /* \"contracts/tweets.sol\":533:540  tweetId */\n      dup4\n        /* \"contracts/tweets.sol\":527:575  Tweet(tweetId, msg.sender, tweetText, isDeleted) */\n      dup2\n      mstore\n      0x20\n      add\n        /* \"contracts/tweets.sol\":542:552  msg.sender */\n      caller\n        /* \"contracts/tweets.sol\":527:575  Tweet(tweetId, msg.sender, tweetText, isDeleted) */\n      0xffffffffffffffffffffffffffffffffffffffff\n      and\n      dup2\n      mstore\n      0x20\n      add\n        /* \"contracts/tweets.sol\":554:563  tweetText */\n      dup6\n        /* \"contracts/tweets.sol\":527:575  Tweet(tweetId, msg.sender, tweetText, isDeleted) */\n      dup2\n      mstore\n      0x20\n      add\n        /* \"contracts/tweets.sol\":565:574  isDeleted */\n      dup5\n        /* \"contracts/tweets.sol\":527:575  Tweet(tweetId, msg.sender, tweetText, isDeleted) */\n      iszero\n      iszero\n      dup2\n      mstore\n      pop\n        /* \"contracts/tweets.sol\":515:576  tweets.push(Tweet(tweetId, msg.sender, tweetText, isDeleted)) */\n      swap1\n      dup1\n      0x01\n      dup2\n      sload\n      add\n      dup1\n      dup3\n      sstore\n      dup1\n      swap2\n      pop\n      pop\n      0x01\n      swap1\n      sub\n      swap1\n      0x00\n      mstore\n      keccak256(0x00, 0x20)\n      swap1\n      0x04\n      mul\n      add\n      0x00\n      swap1\n      swap2\n      swap1\n      swap2\n      swap1\n      swap2\n      pop\n      0x00\n      dup3\n      add\n      mload\n      dup2\n      0x00\n      add\n      sstore\n      0x20\n      dup3\n      add\n      mload\n      dup2\n      0x01\n      add\n      exp(0x0100, 0x00)\n      dup2\n      sload\n      dup2\n      0xffffffffffffffffffffffffffffffffffffffff\n      mul\n      not\n      and\n      swap1\n      dup4\n      0xffffffffffffffffffffffffffffffffffffffff\n      and\n      mul\n      or\n      swap1\n      sstore\n      pop\n      0x40\n      dup3\n      add\n      mload\n      dup2\n      0x02\n      add\n      swap1\n      dup1\n      mload\n      swap1\n      0x20\n      add\n      swap1\n      tag_90\n      swap3\n      swap2\n      swap1\n      tag_91\n      jump\t// in\n    tag_90:\n      pop\n      0x60\n      dup3\n      add\n      mload\n      dup2\n      0x03\n      add\n      exp(0x0100, 0x00)\n      dup2\n      sload\n      dup2\n      0xff\n      mul\n      not\n      and\n      swap1\n      dup4\n      iszero\n      iszero\n      mul\n      or\n      swap1\n      sstore\n      pop\n      pop\n      pop\n        /* \"contracts/tweets.sol\":610:620  msg.sender */\n      caller\n        /* \"contracts/tweets.sol\":586:598  tweetToOwner */\n      0x01\n        /* \"contracts/tweets.sol\":586:607  tweetToOwner[tweetId] */\n      0x00\n        /* \"contracts/tweets.sol\":599:606  tweetId */\n      dup4\n        /* \"contracts/tweets.sol\":586:607  tweetToOwner[tweetId] */\n      dup2\n      mstore\n      0x20\n      add\n      swap1\n      dup2\n      mstore\n      0x20\n      add\n      0x00\n      keccak256\n      0x00\n        /* \"contracts/tweets.sol\":586:620  tweetToOwner[tweetId] = msg.sender */\n      0x0100\n      exp\n      dup2\n      sload\n      dup2\n      0xffffffffffffffffffffffffffffffffffffffff\n      mul\n      not\n      and\n      swap1\n      dup4\n      0xffffffffffffffffffffffffffffffffffffffff\n      and\n      mul\n      or\n      swap1\n      sstore\n      pop\n        /* \"contracts/tweets.sol\":635:664  AddTweet(msg.sender, tweetId) */\n      0x8b2db9b424f26463510ef5b02c16f2465836b52081b51d2112ec76102053bdea\n        /* \"contracts/tweets.sol\":644:654  msg.sender */\n      caller\n        /* \"contracts/tweets.sol\":656:663  tweetId */\n      dup3\n        /* \"contracts/tweets.sol\":635:664  AddTweet(msg.sender, tweetId) */\n      mload(0x40)\n      tag_92\n      swap3\n      swap2\n      swap1\n      tag_93\n      jump\t// in\n    tag_92:\n      mload(0x40)\n      dup1\n      swap2\n      sub\n      swap1\n      log1\n        /* \"contracts/tweets.sol\":399:671  function addTweet(string memory tweetText, bool isDeleted) external {... */\n      pop\n      pop\n      pop\n      jump\t// out\n        /* \"contracts/tweets.sol\":1861:2089  function deleteTweet(uint tweetId, bool isDeleted) external {... */\n    tag_21:\n        /* \"contracts/tweets.sol\":1959:1969  msg.sender */\n      caller\n        /* \"contracts/tweets.sol\":1934:1969  tweetToOwner[tweetId] == msg.sender */\n      0xffffffffffffffffffffffffffffffffffffffff\n      and\n        /* \"contracts/tweets.sol\":1934:1946  tweetToOwner */\n      0x01\n        /* \"contracts/tweets.sol\":1934:1955  tweetToOwner[tweetId] */\n      0x00\n        /* \"contracts/tweets.sol\":1947:1954  tweetId */\n      dup5\n        /* \"contracts/tweets.sol\":1934:1955  tweetToOwner[tweetId] */\n      dup2\n      mstore\n      0x20\n      add\n      swap1\n      dup2\n      mstore\n      0x20\n      add\n      0x00\n      keccak256\n      0x00\n      swap1\n      sload\n      swap1\n      0x0100\n      exp\n      swap1\n      div\n      0xffffffffffffffffffffffffffffffffffffffff\n      and\n        /* \"contracts/tweets.sol\":1934:1969  tweetToOwner[tweetId] == msg.sender */\n      0xffffffffffffffffffffffffffffffffffffffff\n      and\n      eq\n        /* \"contracts/tweets.sol\":1931:2083  if(tweetToOwner[tweetId] == msg.sender) {... */\n      iszero\n      tag_95\n      jumpi\n        /* \"contracts/tweets.sol\":2013:2022  isDeleted */\n      dup1\n        /* \"contracts/tweets.sol\":1985:1991  tweets */\n      0x00\n        /* \"contracts/tweets.sol\":1992:1999  tweetId */\n      dup4\n        /* \"contracts/tweets.sol\":1985:2000  tweets[tweetId] */\n      dup2\n      sload\n      dup2\n      lt\n      tag_96\n      jumpi\n      mstore(0x00, 0x4e487b7100000000000000000000000000000000000000000000000000000000)\n      mstore(0x04, 0x32)\n      revert(0x00, 0x24)\n    tag_96:\n      swap1\n      0x00\n      mstore\n      keccak256(0x00, 0x20)\n      swap1\n      0x04\n      mul\n      add\n        /* \"contracts/tweets.sol\":1985:2010  tweets[tweetId].isDeleted */\n      0x03\n      add\n      0x00\n        /* \"contracts/tweets.sol\":1985:2022  tweets[tweetId].isDeleted = isDeleted */\n      0x0100\n      exp\n      dup2\n      sload\n      dup2\n      0xff\n      mul\n      not\n      and\n      swap1\n      dup4\n      iszero\n      iszero\n      mul\n      or\n      swap1\n      sstore\n      pop\n        /* \"contracts/tweets.sol\":2041:2072  DeleteTweet(tweetId, isDeleted) */\n      0x2430f837dd2fb40e08c064be9db3d0cf2a7a21f8fe716a2a41787dafc66a7e2a\n        /* \"contracts/tweets.sol\":2053:2060  tweetId */\n      dup3\n        /* \"contracts/tweets.sol\":2062:2071  isDeleted */\n      dup3\n        /* \"contracts/tweets.sol\":2041:2072  DeleteTweet(tweetId, isDeleted) */\n      mload(0x40)\n      tag_98\n      swap3\n      swap2\n      swap1\n      tag_99\n      jump\t// in\n    tag_98:\n      mload(0x40)\n      dup1\n      swap2\n      sub\n      swap1\n      log1\n        /* \"contracts/tweets.sol\":1931:2083  if(tweetToOwner[tweetId] == msg.sender) {... */\n    tag_95:\n        /* \"contracts/tweets.sol\":1861:2089  function deleteTweet(uint tweetId, bool isDeleted) external {... */\n      pop\n      pop\n      jump\t// out\n    tag_27:\n      mload(0x40)\n      dup1\n      0x80\n      add\n      0x40\n      mstore\n      dup1\n      0x00\n      dup2\n      mstore\n      0x20\n      add\n      and(0xffffffffffffffffffffffffffffffffffffffff, 0x00)\n      dup2\n      mstore\n      0x20\n      add\n      0x60\n      dup2\n      mstore\n      0x20\n      add\n      iszero(iszero(0x00))\n      dup2\n      mstore\n      pop\n      swap1\n      jump\t// out\n    tag_91:\n      dup3\n      dup1\n      sload\n      tag_100\n      swap1\n      tag_37\n      jump\t// in\n    tag_100:\n      swap1\n      0x00\n      mstore\n      keccak256(0x00, 0x20)\n      swap1\n      0x1f\n      add\n      0x20\n      swap1\n      div\n      dup2\n      add\n      swap3\n      dup3\n      tag_102\n      jumpi\n      0x00\n      dup6\n      sstore\n      jump(tag_101)\n    tag_102:\n      dup3\n      0x1f\n      lt\n      tag_103\n      jumpi\n      dup1\n      mload\n      not(0xff)\n      and\n      dup4\n      dup1\n      add\n      or\n      dup6\n      sstore\n      jump(tag_101)\n    tag_103:\n      dup3\n      dup1\n      add\n      0x01\n      add\n      dup6\n      sstore\n      dup3\n      iszero\n      tag_101\n      jumpi\n      swap2\n      dup3\n      add\n    tag_104:\n      dup3\n      dup2\n      gt\n      iszero\n      tag_105\n      jumpi\n      dup3\n      mload\n      dup3\n      sstore\n      swap2\n      0x20\n      add\n      swap2\n      swap1\n      0x01\n      add\n      swap1\n      jump(tag_104)\n    tag_105:\n    tag_101:\n      pop\n      swap1\n      pop\n      tag_106\n      swap2\n      swap1\n      tag_107\n      jump\t// in\n    tag_106:\n      pop\n      swap1\n      jump\t// out\n    tag_107:\n    tag_108:\n      dup1\n      dup3\n      gt\n      iszero\n      tag_109\n      jumpi\n      0x00\n      dup2\n      0x00\n      swap1\n      sstore\n      pop\n      0x01\n      add\n      jump(tag_108)\n    tag_109:\n      pop\n      swap1\n      jump\t// out\n        /* \"#utility.yul\":7:352   */\n    tag_111:\n        /* \"#utility.yul\":85:90   */\n      0x00\n        /* \"#utility.yul\":110:176   */\n      tag_113\n        /* \"#utility.yul\":126:175   */\n      tag_114\n        /* \"#utility.yul\":168:174   */\n      dup5\n        /* \"#utility.yul\":126:175   */\n      tag_115\n      jump\t// in\n    tag_114:\n        /* \"#utility.yul\":110:176   */\n      tag_116\n      jump\t// in\n    tag_113:\n        /* \"#utility.yul\":101:176   */\n      swap1\n      pop\n        /* \"#utility.yul\":199:205   */\n      dup3\n        /* \"#utility.yul\":192:197   */\n      dup2\n        /* \"#utility.yul\":185:206   */\n      mstore\n        /* \"#utility.yul\":237:241   */\n      0x20\n        /* \"#utility.yul\":230:235   */\n      dup2\n        /* \"#utility.yul\":226:242   */\n      add\n        /* \"#utility.yul\":275:278   */\n      dup5\n        /* \"#utility.yul\":266:272   */\n      dup5\n        /* \"#utility.yul\":261:264   */\n      dup5\n        /* \"#utility.yul\":257:273   */\n      add\n        /* \"#utility.yul\":254:279   */\n      gt\n        /* \"#utility.yul\":251:253   */\n      iszero\n      tag_117\n      jumpi\n        /* \"#utility.yul\":292:293   */\n      0x00\n        /* \"#utility.yul\":289:290   */\n      dup1\n        /* \"#utility.yul\":282:294   */\n      revert\n        /* \"#utility.yul\":251:253   */\n    tag_117:\n        /* \"#utility.yul\":305:346   */\n      tag_118\n        /* \"#utility.yul\":339:345   */\n      dup5\n        /* \"#utility.yul\":334:337   */\n      dup3\n        /* \"#utility.yul\":329:332   */\n      dup6\n        /* \"#utility.yul\":305:346   */\n      tag_119\n      jump\t// in\n    tag_118:\n        /* \"#utility.yul\":91:352   */\n      pop\n      swap4\n      swap3\n      pop\n      pop\n      pop\n      jump\t// out\n        /* \"#utility.yul\":358:491   */\n    tag_120:\n        /* \"#utility.yul\":401:406   */\n      0x00\n        /* \"#utility.yul\":439:445   */\n      dup2\n        /* \"#utility.yul\":426:446   */\n      calldataload\n        /* \"#utility.yul\":417:446   */\n      swap1\n      pop\n        /* \"#utility.yul\":455:485   */\n      tag_122\n        /* \"#utility.yul\":479:484   */\n      dup2\n        /* \"#utility.yul\":455:485   */\n      tag_123\n      jump\t// in\n    tag_122:\n        /* \"#utility.yul\":407:491   */\n      swap3\n      swap2\n      pop\n      pop\n      jump\t// out\n        /* \"#utility.yul\":511:784   */\n    tag_124:\n        /* \"#utility.yul\":567:572   */\n      0x00\n        /* \"#utility.yul\":616:619   */\n      dup3\n        /* \"#utility.yul\":609:613   */\n      0x1f\n        /* \"#utility.yul\":601:607   */\n      dup4\n        /* \"#utility.yul\":597:614   */\n      add\n        /* \"#utility.yul\":593:620   */\n      slt\n        /* \"#utility.yul\":583:585   */\n      tag_126\n      jumpi\n        /* \"#utility.yul\":634:635   */\n      0x00\n        /* \"#utility.yul\":631:632   */\n      dup1\n        /* \"#utility.yul\":624:636   */\n      revert\n        /* \"#utility.yul\":583:585   */\n    tag_126:\n        /* \"#utility.yul\":674:680   */\n      dup2\n        /* \"#utility.yul\":661:681   */\n      calldataload\n        /* \"#utility.yul\":699:778   */\n      tag_127\n        /* \"#utility.yul\":774:777   */\n      dup5\n        /* \"#utility.yul\":766:772   */\n      dup3\n        /* \"#utility.yul\":759:763   */\n      0x20\n        /* \"#utility.yul\":751:757   */\n      dup7\n        /* \"#utility.yul\":747:764   */\n      add\n        /* \"#utility.yul\":699:778   */\n      tag_111\n      jump\t// in\n    tag_127:\n        /* \"#utility.yul\":690:778   */\n      swap2\n      pop\n        /* \"#utility.yul\":573:784   */\n      pop\n      swap3\n      swap2\n      pop\n      pop\n      jump\t// out\n        /* \"#utility.yul\":790:929   */\n    tag_128:\n        /* \"#utility.yul\":836:841   */\n      0x00\n        /* \"#utility.yul\":874:880   */\n      dup2\n        /* \"#utility.yul\":861:881   */\n      calldataload\n        /* \"#utility.yul\":852:881   */\n      swap1\n      pop\n        /* \"#utility.yul\":890:923   */\n      tag_130\n        /* \"#utility.yul\":917:922   */\n      dup2\n        /* \"#utility.yul\":890:923   */\n      tag_131\n      jump\t// in\n    tag_130:\n        /* \"#utility.yul\":842:929   */\n      swap3\n      swap2\n      pop\n      pop\n      jump\t// out\n        /* \"#utility.yul\":935:1449   */\n    tag_16:\n        /* \"#utility.yul\":1010:1016   */\n      0x00\n        /* \"#utility.yul\":1018:1024   */\n      dup1\n        /* \"#utility.yul\":1067:1069   */\n      0x40\n        /* \"#utility.yul\":1055:1064   */\n      dup4\n        /* \"#utility.yul\":1046:1053   */\n      dup6\n        /* \"#utility.yul\":1042:1065   */\n      sub\n        /* \"#utility.yul\":1038:1070   */\n      slt\n        /* \"#utility.yul\":1035:1037   */\n      iszero\n      tag_133\n      jumpi\n        /* \"#utility.yul\":1083:1084   */\n      0x00\n        /* \"#utility.yul\":1080:1081   */\n      dup1\n        /* \"#utility.yul\":1073:1085   */\n      revert\n        /* \"#utility.yul\":1035:1037   */\n    tag_133:\n        /* \"#utility.yul\":1154:1155   */\n      0x00\n        /* \"#utility.yul\":1143:1152   */\n      dup4\n        /* \"#utility.yul\":1139:1156   */\n      add\n        /* \"#utility.yul\":1126:1157   */\n      calldataload\n        /* \"#utility.yul\":1184:1202   */\n      0xffffffffffffffff\n        /* \"#utility.yul\":1176:1182   */\n      dup2\n        /* \"#utility.yul\":1173:1203   */\n      gt\n        /* \"#utility.yul\":1170:1172   */\n      iszero\n      tag_134\n      jumpi\n        /* \"#utility.yul\":1216:1217   */\n      0x00\n        /* \"#utility.yul\":1213:1214   */\n      dup1\n        /* \"#utility.yul\":1206:1218   */\n      revert\n        /* \"#utility.yul\":1170:1172   */\n    tag_134:\n        /* \"#utility.yul\":1244:1307   */\n      tag_135\n        /* \"#utility.yul\":1299:1306   */\n      dup6\n        /* \"#utility.yul\":1290:1296   */\n      dup3\n        /* \"#utility.yul\":1279:1288   */\n      dup7\n        /* \"#utility.yul\":1275:1297   */\n      add\n        /* \"#utility.yul\":1244:1307   */\n      tag_124\n      jump\t// in\n    tag_135:\n        /* \"#utility.yul\":1234:1307   */\n      swap3\n      pop\n        /* \"#utility.yul\":1097:1317   */\n      pop\n        /* \"#utility.yul\":1356:1358   */\n      0x20\n        /* \"#utility.yul\":1382:1432   */\n      tag_136\n        /* \"#utility.yul\":1424:1431   */\n      dup6\n        /* \"#utility.yul\":1415:1421   */\n      dup3\n        /* \"#utility.yul\":1404:1413   */\n      dup7\n        /* \"#utility.yul\":1400:1422   */\n      add\n        /* \"#utility.yul\":1382:1432   */\n      tag_120\n      jump\t// in\n    tag_136:\n        /* \"#utility.yul\":1372:1432   */\n      swap2\n      pop\n        /* \"#utility.yul\":1327:1442   */\n      pop\n        /* \"#utility.yul\":1025:1449   */\n      swap3\n      pop\n      swap3\n      swap1\n      pop\n      jump\t// out\n        /* \"#utility.yul\":1455:1856   */\n    tag_20:\n        /* \"#utility.yul\":1520:1526   */\n      0x00\n        /* \"#utility.yul\":1528:1534   */\n      dup1\n        /* \"#utility.yul\":1577:1579   */\n      0x40\n        /* \"#utility.yul\":1565:1574   */\n      dup4\n        /* \"#utility.yul\":1556:1563   */\n      dup6\n        /* \"#utility.yul\":1552:1575   */\n      sub\n        /* \"#utility.yul\":1548:1580   */\n      slt\n        /* \"#utility.yul\":1545:1547   */\n      iszero\n      tag_138\n      jumpi\n        /* \"#utility.yul\":1593:1594   */\n      0x00\n        /* \"#utility.yul\":1590:1591   */\n      dup1\n        /* \"#utility.yul\":1583:1595   */\n      revert\n        /* \"#utility.yul\":1545:1547   */\n    tag_138:\n        /* \"#utility.yul\":1636:1637   */\n      0x00\n        /* \"#utility.yul\":1661:1714   */\n      tag_139\n        /* \"#utility.yul\":1706:1713   */\n      dup6\n        /* \"#utility.yul\":1697:1703   */\n      dup3\n        /* \"#utility.yul\":1686:1695   */\n      dup7\n        /* \"#utility.yul\":1682:1704   */\n      add\n        /* \"#utility.yul\":1661:1714   */\n      tag_128\n      jump\t// in\n    tag_139:\n        /* \"#utility.yul\":1651:1714   */\n      swap3\n      pop\n        /* \"#utility.yul\":1607:1724   */\n      pop\n        /* \"#utility.yul\":1763:1765   */\n      0x20\n        /* \"#utility.yul\":1789:1839   */\n      tag_140\n        /* \"#utility.yul\":1831:1838   */\n      dup6\n        /* \"#utility.yul\":1822:1828   */\n      dup3\n        /* \"#utility.yul\":1811:1820   */\n      dup7\n        /* \"#utility.yul\":1807:1829   */\n      add\n        /* \"#utility.yul\":1789:1839   */\n      tag_120\n      jump\t// in\n    tag_140:\n        /* \"#utility.yul\":1779:1839   */\n      swap2\n      pop\n        /* \"#utility.yul\":1734:1849   */\n      pop\n        /* \"#utility.yul\":1535:1856   */\n      swap3\n      pop\n      swap3\n      swap1\n      pop\n      jump\t// out\n        /* \"#utility.yul\":1862:2102   */\n    tag_141:\n        /* \"#utility.yul\":1973:1983   */\n      0x00\n        /* \"#utility.yul\":2008:2096   */\n      tag_143\n        /* \"#utility.yul\":2092:2095   */\n      dup4\n        /* \"#utility.yul\":2084:2090   */\n      dup4\n        /* \"#utility.yul\":2008:2096   */\n      tag_144\n      jump\t// in\n    tag_143:\n        /* \"#utility.yul\":1994:2096   */\n      swap1\n      pop\n        /* \"#utility.yul\":1984:2102   */\n      swap3\n      swap2\n      pop\n      pop\n      jump\t// out\n        /* \"#utility.yul\":2108:2216   */\n    tag_145:\n        /* \"#utility.yul\":2185:2209   */\n      tag_147\n        /* \"#utility.yul\":2203:2208   */\n      dup2\n        /* \"#utility.yul\":2185:2209   */\n      tag_148\n      jump\t// in\n    tag_147:\n        /* \"#utility.yul\":2180:2183   */\n      dup3\n        /* \"#utility.yul\":2173:2210   */\n      mstore\n        /* \"#utility.yul\":2163:2216   */\n      pop\n      pop\n      jump\t// out\n        /* \"#utility.yul\":2222:2340   */\n    tag_149:\n        /* \"#utility.yul\":2309:2333   */\n      tag_151\n        /* \"#utility.yul\":2327:2332   */\n      dup2\n        /* \"#utility.yul\":2309:2333   */\n      tag_148\n      jump\t// in\n    tag_151:\n        /* \"#utility.yul\":2304:2307   */\n      dup3\n        /* \"#utility.yul\":2297:2334   */\n      mstore\n        /* \"#utility.yul\":2287:2340   */\n      pop\n      pop\n      jump\t// out\n        /* \"#utility.yul\":2418:3497   */\n    tag_152:\n        /* \"#utility.yul\":2579:2582   */\n      0x00\n        /* \"#utility.yul\":2608:2683   */\n      tag_154\n        /* \"#utility.yul\":2677:2682   */\n      dup3\n        /* \"#utility.yul\":2608:2683   */\n      tag_155\n      jump\t// in\n    tag_154:\n        /* \"#utility.yul\":2699:2806   */\n      tag_156\n        /* \"#utility.yul\":2799:2805   */\n      dup2\n        /* \"#utility.yul\":2794:2797   */\n      dup6\n        /* \"#utility.yul\":2699:2806   */\n      tag_157\n      jump\t// in\n    tag_156:\n        /* \"#utility.yul\":2692:2806   */\n      swap4\n      pop\n        /* \"#utility.yul\":2832:2835   */\n      dup4\n        /* \"#utility.yul\":2877:2881   */\n      0x20\n        /* \"#utility.yul\":2869:2875   */\n      dup3\n        /* \"#utility.yul\":2865:2882   */\n      mul\n        /* \"#utility.yul\":2860:2863   */\n      dup6\n        /* \"#utility.yul\":2856:2883   */\n      add\n        /* \"#utility.yul\":2907:2984   */\n      tag_158\n        /* \"#utility.yul\":2978:2983   */\n      dup6\n        /* \"#utility.yul\":2907:2984   */\n      tag_159\n      jump\t// in\n    tag_158:\n        /* \"#utility.yul\":3007:3014   */\n      dup1\n        /* \"#utility.yul\":3038:3039   */\n      0x00\n        /* \"#utility.yul\":3023:3452   */\n    tag_160:\n        /* \"#utility.yul\":3048:3054   */\n      dup6\n        /* \"#utility.yul\":3045:3046   */\n      dup2\n        /* \"#utility.yul\":3042:3055   */\n      lt\n        /* \"#utility.yul\":3023:3452   */\n      iszero\n      tag_162\n      jumpi\n        /* \"#utility.yul\":3119:3128   */\n      dup5\n        /* \"#utility.yul\":3113:3117   */\n      dup5\n        /* \"#utility.yul\":3109:3129   */\n      sub\n        /* \"#utility.yul\":3104:3107   */\n      dup10\n        /* \"#utility.yul\":3097:3130   */\n      mstore\n        /* \"#utility.yul\":3170:3176   */\n      dup2\n        /* \"#utility.yul\":3164:3177   */\n      mload\n        /* \"#utility.yul\":3198:3304   */\n      tag_163\n        /* \"#utility.yul\":3299:3303   */\n      dup6\n        /* \"#utility.yul\":3284:3297   */\n      dup3\n        /* \"#utility.yul\":3198:3304   */\n      tag_141\n      jump\t// in\n    tag_163:\n        /* \"#utility.yul\":3190:3304   */\n      swap5\n      pop\n        /* \"#utility.yul\":3327:3408   */\n      tag_164\n        /* \"#utility.yul\":3401:3407   */\n      dup4\n        /* \"#utility.yul\":3327:3408   */\n      tag_165\n      jump\t// in\n    tag_164:\n        /* \"#utility.yul\":3317:3408   */\n      swap3\n      pop\n        /* \"#utility.yul\":3437:3441   */\n      0x20\n        /* \"#utility.yul\":3432:3435   */\n      dup11\n        /* \"#utility.yul\":3428:3442   */\n      add\n        /* \"#utility.yul\":3421:3442   */\n      swap10\n      pop\n        /* \"#utility.yul\":3083:3452   */\n      pop\n        /* \"#utility.yul\":3070:3071   */\n      0x01\n        /* \"#utility.yul\":3067:3068   */\n      dup2\n        /* \"#utility.yul\":3063:3072   */\n      add\n        /* \"#utility.yul\":3058:3072   */\n      swap1\n      pop\n        /* \"#utility.yul\":3023:3452   */\n      jump(tag_160)\n    tag_162:\n        /* \"#utility.yul\":3027:3041   */\n      pop\n        /* \"#utility.yul\":3468:3472   */\n      dup3\n        /* \"#utility.yul\":3461:3472   */\n      swap8\n      pop\n        /* \"#utility.yul\":3488:3491   */\n      dup8\n        /* \"#utility.yul\":3481:3491   */\n      swap6\n      pop\n        /* \"#utility.yul\":2584:3497   */\n      pop\n      pop\n      pop\n      pop\n      pop\n      swap3\n      swap2\n      pop\n      pop\n      jump\t// out\n        /* \"#utility.yul\":3503:3602   */\n    tag_166:\n        /* \"#utility.yul\":3574:3595   */\n      tag_168\n        /* \"#utility.yul\":3589:3594   */\n      dup2\n        /* \"#utility.yul\":3574:3595   */\n      tag_169\n      jump\t// in\n    tag_168:\n        /* \"#utility.yul\":3569:3572   */\n      dup3\n        /* \"#utility.yul\":3562:3596   */\n      mstore\n        /* \"#utility.yul\":3552:3602   */\n      pop\n      pop\n      jump\t// out\n        /* \"#utility.yul\":3608:3717   */\n    tag_170:\n        /* \"#utility.yul\":3689:3710   */\n      tag_172\n        /* \"#utility.yul\":3704:3709   */\n      dup2\n        /* \"#utility.yul\":3689:3710   */\n      tag_169\n      jump\t// in\n    tag_172:\n        /* \"#utility.yul\":3684:3687   */\n      dup3\n        /* \"#utility.yul\":3677:3711   */\n      mstore\n        /* \"#utility.yul\":3667:3717   */\n      pop\n      pop\n      jump\t// out\n        /* \"#utility.yul\":3723:4067   */\n    tag_173:\n        /* \"#utility.yul\":3801:3804   */\n      0x00\n        /* \"#utility.yul\":3829:3868   */\n      tag_175\n        /* \"#utility.yul\":3862:3867   */\n      dup3\n        /* \"#utility.yul\":3829:3868   */\n      tag_176\n      jump\t// in\n    tag_175:\n        /* \"#utility.yul\":3884:3945   */\n      tag_177\n        /* \"#utility.yul\":3938:3944   */\n      dup2\n        /* \"#utility.yul\":3933:3936   */\n      dup6\n        /* \"#utility.yul\":3884:3945   */\n      tag_178\n      jump\t// in\n    tag_177:\n        /* \"#utility.yul\":3877:3945   */\n      swap4\n      pop\n        /* \"#utility.yul\":3954:4006   */\n      tag_179\n        /* \"#utility.yul\":3999:4005   */\n      dup2\n        /* \"#utility.yul\":3994:3997   */\n      dup6\n        /* \"#utility.yul\":3987:3991   */\n      0x20\n        /* \"#utility.yul\":3980:3985   */\n      dup7\n        /* \"#utility.yul\":3976:3992   */\n      add\n        /* \"#utility.yul\":3954:4006   */\n      tag_180\n      jump\t// in\n    tag_179:\n        /* \"#utility.yul\":4031:4060   */\n      tag_181\n        /* \"#utility.yul\":4053:4059   */\n      dup2\n        /* \"#utility.yul\":4031:4060   */\n      tag_182\n      jump\t// in\n    tag_181:\n        /* \"#utility.yul\":4026:4029   */\n      dup5\n        /* \"#utility.yul\":4022:4061   */\n      add\n        /* \"#utility.yul\":4015:4061   */\n      swap2\n      pop\n        /* \"#utility.yul\":3805:4067   */\n      pop\n      swap3\n      swap2\n      pop\n      pop\n      jump\t// out\n        /* \"#utility.yul\":4141:5083   */\n    tag_144:\n        /* \"#utility.yul\":4242:4245   */\n      0x00\n        /* \"#utility.yul\":4278:4282   */\n      0x80\n        /* \"#utility.yul\":4273:4276   */\n      dup4\n        /* \"#utility.yul\":4269:4283   */\n      add\n        /* \"#utility.yul\":4363:4367   */\n      0x00\n        /* \"#utility.yul\":4356:4361   */\n      dup4\n        /* \"#utility.yul\":4352:4368   */\n      add\n        /* \"#utility.yul\":4346:4369   */\n      mload\n        /* \"#utility.yul\":4382:4445   */\n      tag_184\n        /* \"#utility.yul\":4439:4443   */\n      0x00\n        /* \"#utility.yul\":4434:4437   */\n      dup7\n        /* \"#utility.yul\":4430:4444   */\n      add\n        /* \"#utility.yul\":4416:4428   */\n      dup3\n        /* \"#utility.yul\":4382:4445   */\n      tag_185\n      jump\t// in\n    tag_184:\n        /* \"#utility.yul\":4293:4455   */\n      pop\n        /* \"#utility.yul\":4541:4545   */\n      0x20\n        /* \"#utility.yul\":4534:4539   */\n      dup4\n        /* \"#utility.yul\":4530:4546   */\n      add\n        /* \"#utility.yul\":4524:4547   */\n      mload\n        /* \"#utility.yul\":4560:4623   */\n      tag_186\n        /* \"#utility.yul\":4617:4621   */\n      0x20\n        /* \"#utility.yul\":4612:4615   */\n      dup7\n        /* \"#utility.yul\":4608:4622   */\n      add\n        /* \"#utility.yul\":4594:4606   */\n      dup3\n        /* \"#utility.yul\":4560:4623   */\n      tag_145\n      jump\t// in\n    tag_186:\n        /* \"#utility.yul\":4465:4633   */\n      pop\n        /* \"#utility.yul\":4720:4724   */\n      0x40\n        /* \"#utility.yul\":4713:4718   */\n      dup4\n        /* \"#utility.yul\":4709:4725   */\n      add\n        /* \"#utility.yul\":4703:4726   */\n      mload\n        /* \"#utility.yul\":4773:4776   */\n      dup5\n        /* \"#utility.yul\":4767:4771   */\n      dup3\n        /* \"#utility.yul\":4763:4777   */\n      sub\n        /* \"#utility.yul\":4756:4760   */\n      0x40\n        /* \"#utility.yul\":4751:4754   */\n      dup7\n        /* \"#utility.yul\":4747:4761   */\n      add\n        /* \"#utility.yul\":4740:4778   */\n      mstore\n        /* \"#utility.yul\":4799:4872   */\n      tag_187\n        /* \"#utility.yul\":4867:4871   */\n      dup3\n        /* \"#utility.yul\":4853:4865   */\n      dup3\n        /* \"#utility.yul\":4799:4872   */\n      tag_173\n      jump\t// in\n    tag_187:\n        /* \"#utility.yul\":4791:4872   */\n      swap2\n      pop\n        /* \"#utility.yul\":4643:4883   */\n      pop\n        /* \"#utility.yul\":4970:4974   */\n      0x60\n        /* \"#utility.yul\":4963:4968   */\n      dup4\n        /* \"#utility.yul\":4959:4975   */\n      add\n        /* \"#utility.yul\":4953:4976   */\n      mload\n        /* \"#utility.yul\":4989:5046   */\n      tag_188\n        /* \"#utility.yul\":5040:5044   */\n      0x60\n        /* \"#utility.yul\":5035:5038   */\n      dup7\n        /* \"#utility.yul\":5031:5045   */\n      add\n        /* \"#utility.yul\":5017:5029   */\n      dup3\n        /* \"#utility.yul\":4989:5046   */\n      tag_166\n      jump\t// in\n    tag_188:\n        /* \"#utility.yul\":4893:5056   */\n      pop\n        /* \"#utility.yul\":5073:5077   */\n      dup1\n        /* \"#utility.yul\":5066:5077   */\n      swap2\n      pop\n        /* \"#utility.yul\":4247:5083   */\n      pop\n      swap3\n      swap2\n      pop\n      pop\n      jump\t// out\n        /* \"#utility.yul\":5089:5197   */\n    tag_185:\n        /* \"#utility.yul\":5166:5190   */\n      tag_190\n        /* \"#utility.yul\":5184:5189   */\n      dup2\n        /* \"#utility.yul\":5166:5190   */\n      tag_191\n      jump\t// in\n    tag_190:\n        /* \"#utility.yul\":5161:5164   */\n      dup3\n        /* \"#utility.yul\":5154:5191   */\n      mstore\n        /* \"#utility.yul\":5144:5197   */\n      pop\n      pop\n      jump\t// out\n        /* \"#utility.yul\":5203:5321   */\n    tag_192:\n        /* \"#utility.yul\":5290:5314   */\n      tag_194\n        /* \"#utility.yul\":5308:5313   */\n      dup2\n        /* \"#utility.yul\":5290:5314   */\n      tag_191\n      jump\t// in\n    tag_194:\n        /* \"#utility.yul\":5285:5288   */\n      dup3\n        /* \"#utility.yul\":5278:5315   */\n      mstore\n        /* \"#utility.yul\":5268:5321   */\n      pop\n      pop\n      jump\t// out\n        /* \"#utility.yul\":5327:5659   */\n    tag_93:\n        /* \"#utility.yul\":5448:5452   */\n      0x00\n        /* \"#utility.yul\":5486:5488   */\n      0x40\n        /* \"#utility.yul\":5475:5484   */\n      dup3\n        /* \"#utility.yul\":5471:5489   */\n      add\n        /* \"#utility.yul\":5463:5489   */\n      swap1\n      pop\n        /* \"#utility.yul\":5499:5570   */\n      tag_196\n        /* \"#utility.yul\":5567:5568   */\n      0x00\n        /* \"#utility.yul\":5556:5565   */\n      dup4\n        /* \"#utility.yul\":5552:5569   */\n      add\n        /* \"#utility.yul\":5543:5549   */\n      dup6\n        /* \"#utility.yul\":5499:5570   */\n      tag_149\n      jump\t// in\n    tag_196:\n        /* \"#utility.yul\":5580:5652   */\n      tag_197\n        /* \"#utility.yul\":5648:5650   */\n      0x20\n        /* \"#utility.yul\":5637:5646   */\n      dup4\n        /* \"#utility.yul\":5633:5651   */\n      add\n        /* \"#utility.yul\":5624:5630   */\n      dup5\n        /* \"#utility.yul\":5580:5652   */\n      tag_192\n      jump\t// in\n    tag_197:\n        /* \"#utility.yul\":5453:5659   */\n      swap4\n      swap3\n      pop\n      pop\n      pop\n      jump\t// out\n        /* \"#utility.yul\":5665:6122   */\n    tag_10:\n        /* \"#utility.yul\":5850:5854   */\n      0x00\n        /* \"#utility.yul\":5888:5890   */\n      0x20\n        /* \"#utility.yul\":5877:5886   */\n      dup3\n        /* \"#utility.yul\":5873:5891   */\n      add\n        /* \"#utility.yul\":5865:5891   */\n      swap1\n      pop\n        /* \"#utility.yul\":5937:5946   */\n      dup2\n        /* \"#utility.yul\":5931:5935   */\n      dup2\n        /* \"#utility.yul\":5927:5947   */\n      sub\n        /* \"#utility.yul\":5923:5924   */\n      0x00\n        /* \"#utility.yul\":5912:5921   */\n      dup4\n        /* \"#utility.yul\":5908:5925   */\n      add\n        /* \"#utility.yul\":5901:5948   */\n      mstore\n        /* \"#utility.yul\":5965:6115   */\n      tag_199\n        /* \"#utility.yul\":6110:6114   */\n      dup2\n        /* \"#utility.yul\":6101:6107   */\n      dup5\n        /* \"#utility.yul\":5965:6115   */\n      tag_152\n      jump\t// in\n    tag_199:\n        /* \"#utility.yul\":5957:6115   */\n      swap1\n      pop\n        /* \"#utility.yul\":5855:6122   */\n      swap3\n      swap2\n      pop\n      pop\n      jump\t// out\n        /* \"#utility.yul\":6128:6448   */\n    tag_99:\n        /* \"#utility.yul\":6243:6247   */\n      0x00\n        /* \"#utility.yul\":6281:6283   */\n      0x40\n        /* \"#utility.yul\":6270:6279   */\n      dup3\n        /* \"#utility.yul\":6266:6284   */\n      add\n        /* \"#utility.yul\":6258:6284   */\n      swap1\n      pop\n        /* \"#utility.yul\":6294:6365   */\n      tag_201\n        /* \"#utility.yul\":6362:6363   */\n      0x00\n        /* \"#utility.yul\":6351:6360   */\n      dup4\n        /* \"#utility.yul\":6347:6364   */\n      add\n        /* \"#utility.yul\":6338:6344   */\n      dup6\n        /* \"#utility.yul\":6294:6365   */\n      tag_192\n      jump\t// in\n    tag_201:\n        /* \"#utility.yul\":6375:6441   */\n      tag_202\n        /* \"#utility.yul\":6437:6439   */\n      0x20\n        /* \"#utility.yul\":6426:6435   */\n      dup4\n        /* \"#utility.yul\":6422:6440   */\n      add\n        /* \"#utility.yul\":6413:6419   */\n      dup5\n        /* \"#utility.yul\":6375:6441   */\n      tag_170\n      jump\t// in\n    tag_202:\n        /* \"#utility.yul\":6248:6448   */\n      swap4\n      swap3\n      pop\n      pop\n      pop\n      jump\t// out\n        /* \"#utility.yul\":6454:6583   */\n    tag_116:\n        /* \"#utility.yul\":6488:6494   */\n      0x00\n        /* \"#utility.yul\":6515:6535   */\n      tag_204\n      tag_205\n      jump\t// in\n    tag_204:\n        /* \"#utility.yul\":6505:6535   */\n      swap1\n      pop\n        /* \"#utility.yul\":6544:6577   */\n      tag_206\n        /* \"#utility.yul\":6572:6576   */\n      dup3\n        /* \"#utility.yul\":6564:6570   */\n      dup3\n        /* \"#utility.yul\":6544:6577   */\n      tag_207\n      jump\t// in\n    tag_206:\n        /* \"#utility.yul\":6495:6583   */\n      swap2\n      swap1\n      pop\n      jump\t// out\n        /* \"#utility.yul\":6589:6664   */\n    tag_205:\n        /* \"#utility.yul\":6622:6628   */\n      0x00\n        /* \"#utility.yul\":6655:6657   */\n      0x40\n        /* \"#utility.yul\":6649:6658   */\n      mload\n        /* \"#utility.yul\":6639:6658   */\n      swap1\n      pop\n        /* \"#utility.yul\":6629:6664   */\n      swap1\n      jump\t// out\n        /* \"#utility.yul\":6670:6978   */\n    tag_115:\n        /* \"#utility.yul\":6732:6736   */\n      0x00\n        /* \"#utility.yul\":6822:6840   */\n      0xffffffffffffffff\n        /* \"#utility.yul\":6814:6820   */\n      dup3\n        /* \"#utility.yul\":6811:6841   */\n      gt\n        /* \"#utility.yul\":6808:6810   */\n      iszero\n      tag_210\n      jumpi\n        /* \"#utility.yul\":6844:6862   */\n      tag_211\n      tag_212\n      jump\t// in\n    tag_211:\n        /* \"#utility.yul\":6808:6810   */\n    tag_210:\n        /* \"#utility.yul\":6882:6911   */\n      tag_213\n        /* \"#utility.yul\":6904:6910   */\n      dup3\n        /* \"#utility.yul\":6882:6911   */\n      tag_182\n      jump\t// in\n    tag_213:\n        /* \"#utility.yul\":6874:6911   */\n      swap1\n      pop\n        /* \"#utility.yul\":6966:6970   */\n      0x20\n        /* \"#utility.yul\":6960:6964   */\n      dup2\n        /* \"#utility.yul\":6956:6971   */\n      add\n        /* \"#utility.yul\":6948:6971   */\n      swap1\n      pop\n        /* \"#utility.yul\":6737:6978   */\n      swap2\n      swap1\n      pop\n      jump\t// out\n        /* \"#utility.yul\":6984:7137   */\n    tag_159:\n        /* \"#utility.yul\":7072:7076   */\n      0x00\n        /* \"#utility.yul\":7095:7098   */\n      dup2\n        /* \"#utility.yul\":7087:7098   */\n      swap1\n      pop\n        /* \"#utility.yul\":7125:7129   */\n      0x20\n        /* \"#utility.yul\":7120:7123   */\n      dup3\n        /* \"#utility.yul\":7116:7130   */\n      add\n        /* \"#utility.yul\":7108:7130   */\n      swap1\n      pop\n        /* \"#utility.yul\":7077:7137   */\n      swap2\n      swap1\n      pop\n      jump\t// out\n        /* \"#utility.yul\":7143:7278   */\n    tag_155:\n        /* \"#utility.yul\":7231:7237   */\n      0x00\n        /* \"#utility.yul\":7265:7270   */\n      dup2\n        /* \"#utility.yul\":7259:7271   */\n      mload\n        /* \"#utility.yul\":7249:7271   */\n      swap1\n      pop\n        /* \"#utility.yul\":7238:7278   */\n      swap2\n      swap1\n      pop\n      jump\t// out\n        /* \"#utility.yul\":7284:7383   */\n    tag_176:\n        /* \"#utility.yul\":7336:7342   */\n      0x00\n        /* \"#utility.yul\":7370:7375   */\n      dup2\n        /* \"#utility.yul\":7364:7376   */\n      mload\n        /* \"#utility.yul\":7354:7376   */\n      swap1\n      pop\n        /* \"#utility.yul\":7343:7383   */\n      swap2\n      swap1\n      pop\n      jump\t// out\n        /* \"#utility.yul\":7389:7523   */\n    tag_165:\n        /* \"#utility.yul\":7480:7484   */\n      0x00\n        /* \"#utility.yul\":7512:7516   */\n      0x20\n        /* \"#utility.yul\":7507:7510   */\n      dup3\n        /* \"#utility.yul\":7503:7517   */\n      add\n        /* \"#utility.yul\":7495:7517   */\n      swap1\n      pop\n        /* \"#utility.yul\":7485:7523   */\n      swap2\n      swap1\n      pop\n      jump\t// out\n        /* \"#utility.yul\":7529:7734   */\n    tag_157:\n        /* \"#utility.yul\":7649:7660   */\n      0x00\n        /* \"#utility.yul\":7683:7689   */\n      dup3\n        /* \"#utility.yul\":7678:7681   */\n      dup3\n        /* \"#utility.yul\":7671:7690   */\n      mstore\n        /* \"#utility.yul\":7723:7727   */\n      0x20\n        /* \"#utility.yul\":7718:7721   */\n      dup3\n        /* \"#utility.yul\":7714:7728   */\n      add\n        /* \"#utility.yul\":7699:7728   */\n      swap1\n      pop\n        /* \"#utility.yul\":7661:7734   */\n      swap3\n      swap2\n      pop\n      pop\n      jump\t// out\n        /* \"#utility.yul\":7740:7899   */\n    tag_178:\n        /* \"#utility.yul\":7814:7825   */\n      0x00\n        /* \"#utility.yul\":7848:7854   */\n      dup3\n        /* \"#utility.yul\":7843:7846   */\n      dup3\n        /* \"#utility.yul\":7836:7855   */\n      mstore\n        /* \"#utility.yul\":7888:7892   */\n      0x20\n        /* \"#utility.yul\":7883:7886   */\n      dup3\n        /* \"#utility.yul\":7879:7893   */\n      add\n        /* \"#utility.yul\":7864:7893   */\n      swap1\n      pop\n        /* \"#utility.yul\":7826:7899   */\n      swap3\n      swap2\n      pop\n      pop\n      jump\t// out\n        /* \"#utility.yul\":7905:8001   */\n    tag_148:\n        /* \"#utility.yul\":7942:7949   */\n      0x00\n        /* \"#utility.yul\":7971:7995   */\n      tag_221\n        /* \"#utility.yul\":7989:7994   */\n      dup3\n        /* \"#utility.yul\":7971:7995   */\n      tag_222\n      jump\t// in\n    tag_221:\n        /* \"#utility.yul\":7960:7995   */\n      swap1\n      pop\n        /* \"#utility.yul\":7950:8001   */\n      swap2\n      swap1\n      pop\n      jump\t// out\n        /* \"#utility.yul\":8007:8097   */\n    tag_169:\n        /* \"#utility.yul\":8041:8048   */\n      0x00\n        /* \"#utility.yul\":8084:8089   */\n      dup2\n        /* \"#utility.yul\":8077:8090   */\n      iszero\n        /* \"#utility.yul\":8070:8091   */\n      iszero\n        /* \"#utility.yul\":8059:8091   */\n      swap1\n      pop\n        /* \"#utility.yul\":8049:8097   */\n      swap2\n      swap1\n      pop\n      jump\t// out\n        /* \"#utility.yul\":8103:8229   */\n    tag_222:\n        /* \"#utility.yul\":8140:8147   */\n      0x00\n        /* \"#utility.yul\":8180:8222   */\n      0xffffffffffffffffffffffffffffffffffffffff\n        /* \"#utility.yul\":8173:8178   */\n      dup3\n        /* \"#utility.yul\":8169:8223   */\n      and\n        /* \"#utility.yul\":8158:8223   */\n      swap1\n      pop\n        /* \"#utility.yul\":8148:8229   */\n      swap2\n      swap1\n      pop\n      jump\t// out\n        /* \"#utility.yul\":8235:8312   */\n    tag_191:\n        /* \"#utility.yul\":8272:8279   */\n      0x00\n        /* \"#utility.yul\":8301:8306   */\n      dup2\n        /* \"#utility.yul\":8290:8306   */\n      swap1\n      pop\n        /* \"#utility.yul\":8280:8312   */\n      swap2\n      swap1\n      pop\n      jump\t// out\n        /* \"#utility.yul\":8318:8472   */\n    tag_119:\n        /* \"#utility.yul\":8402:8408   */\n      dup3\n        /* \"#utility.yul\":8397:8400   */\n      dup2\n        /* \"#utility.yul\":8392:8395   */\n      dup4\n        /* \"#utility.yul\":8379:8409   */\n      calldatacopy\n        /* \"#utility.yul\":8464:8465   */\n      0x00\n        /* \"#utility.yul\":8455:8461   */\n      dup4\n        /* \"#utility.yul\":8450:8453   */\n      dup4\n        /* \"#utility.yul\":8446:8462   */\n      add\n        /* \"#utility.yul\":8439:8466   */\n      mstore\n        /* \"#utility.yul\":8369:8472   */\n      pop\n      pop\n      pop\n      jump\t// out\n        /* \"#utility.yul\":8478:8785   */\n    tag_180:\n        /* \"#utility.yul\":8546:8547   */\n      0x00\n        /* \"#utility.yul\":8556:8669   */\n    tag_228:\n        /* \"#utility.yul\":8570:8576   */\n      dup4\n        /* \"#utility.yul\":8567:8568   */\n      dup2\n        /* \"#utility.yul\":8564:8577   */\n      lt\n        /* \"#utility.yul\":8556:8669   */\n      iszero\n      tag_230\n      jumpi\n        /* \"#utility.yul\":8655:8656   */\n      dup1\n        /* \"#utility.yul\":8650:8653   */\n      dup3\n        /* \"#utility.yul\":8646:8657   */\n      add\n        /* \"#utility.yul\":8640:8658   */\n      mload\n        /* \"#utility.yul\":8636:8637   */\n      dup2\n        /* \"#utility.yul\":8631:8634   */\n      dup5\n        /* \"#utility.yul\":8627:8638   */\n      add\n        /* \"#utility.yul\":8620:8659   */\n      mstore\n        /* \"#utility.yul\":8592:8594   */\n      0x20\n        /* \"#utility.yul\":8589:8590   */\n      dup2\n        /* \"#utility.yul\":8585:8595   */\n      add\n        /* \"#utility.yul\":8580:8595   */\n      swap1\n      pop\n        /* \"#utility.yul\":8556:8669   */\n      jump(tag_228)\n    tag_230:\n        /* \"#utility.yul\":8687:8693   */\n      dup4\n        /* \"#utility.yul\":8684:8685   */\n      dup2\n        /* \"#utility.yul\":8681:8694   */\n      gt\n        /* \"#utility.yul\":8678:8680   */\n      iszero\n      tag_231\n      jumpi\n        /* \"#utility.yul\":8767:8768   */\n      0x00\n        /* \"#utility.yul\":8758:8764   */\n      dup5\n        /* \"#utility.yul\":8753:8756   */\n      dup5\n        /* \"#utility.yul\":8749:8765   */\n      add\n        /* \"#utility.yul\":8742:8769   */\n      mstore\n        /* \"#utility.yul\":8678:8680   */\n    tag_231:\n        /* \"#utility.yul\":8527:8785   */\n      pop\n      pop\n      pop\n      pop\n      jump\t// out\n        /* \"#utility.yul\":8791:9111   */\n    tag_37:\n        /* \"#utility.yul\":8835:8841   */\n      0x00\n        /* \"#utility.yul\":8872:8873   */\n      0x02\n        /* \"#utility.yul\":8866:8870   */\n      dup3\n        /* \"#utility.yul\":8862:8874   */\n      div\n        /* \"#utility.yul\":8852:8874   */\n      swap1\n      pop\n        /* \"#utility.yul\":8919:8920   */\n      0x01\n        /* \"#utility.yul\":8913:8917   */\n      dup3\n        /* \"#utility.yul\":8909:8921   */\n      and\n        /* \"#utility.yul\":8940:8958   */\n      dup1\n        /* \"#utility.yul\":8930:8932   */\n      tag_233\n      jumpi\n        /* \"#utility.yul\":8996:9000   */\n      0x7f\n        /* \"#utility.yul\":8988:8994   */\n      dup3\n        /* \"#utility.yul\":8984:9001   */\n      and\n        /* \"#utility.yul\":8974:9001   */\n      swap2\n      pop\n        /* \"#utility.yul\":8930:8932   */\n    tag_233:\n        /* \"#utility.yul\":9058:9060   */\n      0x20\n        /* \"#utility.yul\":9050:9056   */\n      dup3\n        /* \"#utility.yul\":9047:9061   */\n      lt\n        /* \"#utility.yul\":9027:9045   */\n      dup2\n        /* \"#utility.yul\":9024:9062   */\n      eq\n        /* \"#utility.yul\":9021:9023   */\n      iszero\n      tag_234\n      jumpi\n        /* \"#utility.yul\":9077:9095   */\n      tag_235\n      tag_236\n      jump\t// in\n    tag_235:\n        /* \"#utility.yul\":9021:9023   */\n    tag_234:\n        /* \"#utility.yul\":8842:9111   */\n      pop\n      swap2\n      swap1\n      pop\n      jump\t// out\n        /* \"#utility.yul\":9117:9398   */\n    tag_207:\n        /* \"#utility.yul\":9200:9227   */\n      tag_238\n        /* \"#utility.yul\":9222:9226   */\n      dup3\n        /* \"#utility.yul\":9200:9227   */\n      tag_182\n      jump\t// in\n    tag_238:\n        /* \"#utility.yul\":9192:9198   */\n      dup2\n        /* \"#utility.yul\":9188:9228   */\n      add\n        /* \"#utility.yul\":9330:9336   */\n      dup2\n        /* \"#utility.yul\":9318:9328   */\n      dup2\n        /* \"#utility.yul\":9315:9337   */\n      lt\n        /* \"#utility.yul\":9294:9312   */\n      0xffffffffffffffff\n        /* \"#utility.yul\":9282:9292   */\n      dup3\n        /* \"#utility.yul\":9279:9313   */\n      gt\n        /* \"#utility.yul\":9276:9338   */\n      or\n        /* \"#utility.yul\":9273:9275   */\n      iszero\n      tag_239\n      jumpi\n        /* \"#utility.yul\":9341:9359   */\n      tag_240\n      tag_212\n      jump\t// in\n    tag_240:\n        /* \"#utility.yul\":9273:9275   */\n    tag_239:\n        /* \"#utility.yul\":9381:9391   */\n      dup1\n        /* \"#utility.yul\":9377:9379   */\n      0x40\n        /* \"#utility.yul\":9370:9392   */\n      mstore\n        /* \"#utility.yul\":9160:9398   */\n      pop\n      pop\n      pop\n      jump\t// out\n        /* \"#utility.yul\":9404:9637   */\n    tag_44:\n        /* \"#utility.yul\":9443:9446   */\n      0x00\n        /* \"#utility.yul\":9466:9490   */\n      tag_242\n        /* \"#utility.yul\":9484:9489   */\n      dup3\n        /* \"#utility.yul\":9466:9490   */\n      tag_191\n      jump\t// in\n    tag_242:\n        /* \"#utility.yul\":9457:9490   */\n      swap2\n      pop\n        /* \"#utility.yul\":9512:9578   */\n      0xffffffffffffffffffffffffffffffffffffffffffffffffffffffffffffffff\n        /* \"#utility.yul\":9505:9510   */\n      dup3\n        /* \"#utility.yul\":9502:9579   */\n      eq\n        /* \"#utility.yul\":9499:9501   */\n      iszero\n      tag_243\n      jumpi\n        /* \"#utility.yul\":9582:9600   */\n      tag_244\n      tag_245\n      jump\t// in\n    tag_244:\n        /* \"#utility.yul\":9499:9501   */\n    tag_243:\n        /* \"#utility.yul\":9629:9630   */\n      0x01\n        /* \"#utility.yul\":9622:9627   */\n      dup3\n        /* \"#utility.yul\":9618:9631   */\n      add\n        /* \"#utility.yul\":9611:9631   */\n      swap1\n      pop\n        /* \"#utility.yul\":9447:9637   */\n      swap2\n      swap1\n      pop\n      jump\t// out\n        /* \"#utility.yul\":9643:9823   */\n    tag_245:\n        /* \"#utility.yul\":9691:9768   */\n      0x4e487b7100000000000000000000000000000000000000000000000000000000\n        /* \"#utility.yul\":9688:9689   */\n      0x00\n        /* \"#utility.yul\":9681:9769   */\n      mstore\n        /* \"#utility.yul\":9788:9792   */\n      0x11\n        /* \"#utility.yul\":9785:9786   */\n      0x04\n        /* \"#utility.yul\":9778:9793   */\n      mstore\n        /* \"#utility.yul\":9812:9816   */\n      0x24\n        /* \"#utility.yul\":9809:9810   */\n      0x00\n        /* \"#utility.yul\":9802:9817   */\n      revert\n        /* \"#utility.yul\":9829:10009   */\n    tag_236:\n        /* \"#utility.yul\":9877:9954   */\n      0x4e487b7100000000000000000000000000000000000000000000000000000000\n        /* \"#utility.yul\":9874:9875   */\n      0x00\n        /* \"#utility.yul\":9867:9955   */\n      mstore\n        /* \"#utility.yul\":9974:9978   */\n      0x22\n        /* \"#utility.yul\":9971:9972   */\n      0x04\n        /* \"#utility.yul\":9964:9979   */\n      mstore\n        /* \"#utility.yul\":9998:10002   */\n      0x24\n        /* \"#utility.yul\":9995:9996   */\n      0x00\n        /* \"#utility.yul\":9988:10003   */\n      revert\n        /* \"#utility.yul\":10015:10195   */\n    tag_212:\n        /* \"#utility.yul\":10063:10140   */\n      0x4e487b7100000000000000000000000000000000000000000000000000000000\n        /* \"#utility.yul\":10060:10061   */\n      0x00\n        /* \"#utility.yul\":10053:10141   */\n      mstore\n        /* \"#utility.yul\":10160:10164   */\n      0x41\n        /* \"#utility.yul\":10157:10158   */\n      0x04\n        /* \"#utility.yul\":10150:10165   */\n      mstore\n        /* \"#utility.yul\":10184:10188   */\n      0x24\n        /* \"#utility.yul\":10181:10182   */\n      0x00\n        /* \"#utility.yul\":10174:10189   */\n      revert\n        /* \"#utility.yul\":10201:10303   */\n    tag_182:\n        /* \"#utility.yul\":10242:10248   */\n      0x00\n        /* \"#utility.yul\":10293:10295   */\n      0x1f\n        /* \"#utility.yul\":10289:10296   */\n      not\n        /* \"#utility.yul\":10284:10286   */\n      0x1f\n        /* \"#utility.yul\":10277:10282   */\n      dup4\n        /* \"#utility.yul\":10273:10287   */\n      add\n        /* \"#utility.yul\":10269:10297   */\n      and\n        /* \"#utility.yul\":10259:10297   */\n      swap1\n      pop\n        /* \"#utility.yul\":10249:10303   */\n      swap2\n      swap1\n      pop\n      jump\t// out\n        /* \"#utility.yul\":10309:10425   */\n    tag_123:\n        /* \"#utility.yul\":10379:10400   */\n      tag_251\n        /* \"#utility.yul\":10394:10399   */\n      dup2\n        /* \"#utility.yul\":10379:10400   */\n      tag_169\n      jump\t// in\n    tag_251:\n        /* \"#utility.yul\":10372:10377   */\n      dup2\n        /* \"#utility.yul\":10369:10401   */\n      eq\n        /* \"#utility.yul\":10359:10361   */\n      tag_252\n      jumpi\n        /* \"#utility.yul\":10415:10416   */\n      0x00\n        /* \"#utility.yul\":10412:10413   */\n      dup1\n        /* \"#utility.yul\":10405:10417   */\n      revert\n        /* \"#utility.yul\":10359:10361   */\n    tag_252:\n        /* \"#utility.yul\":10349:10425   */\n      pop\n      jump\t// out\n        /* \"#utility.yul\":10431:10553   */\n    tag_131:\n        /* \"#utility.yul\":10504:10528   */\n      tag_254\n        /* \"#utility.yul\":10522:10527   */\n      dup2\n        /* \"#utility.yul\":10504:10528   */\n      tag_191\n      jump\t// in\n    tag_254:\n        /* \"#utility.yul\":10497:10502   */\n      dup2\n        /* \"#utility.yul\":10494:10529   */\n      eq\n        /* \"#utility.yul\":10484:10486   */\n      tag_255\n      jumpi\n        /* \"#utility.yul\":10543:10544   */\n      0x00\n        /* \"#utility.yul\":10540:10541   */\n      dup1\n        /* \"#utility.yul\":10533:10545   */\n      revert\n        /* \"#utility.yul\":10484:10486   */\n    tag_255:\n        /* \"#utility.yul\":10474:10553   */\n      pop\n      jump\t// out\n\n    auxdata: 0xa2646970667358221220da63aff0bdab4e98e8a2d275d516ff9a94be8abf9c97d202f063474e40bb81e164736f6c63430008040033\n}\n",
				"bytecode": {
					"linkReferences": {},
					"object": "608060405234801561001057600080fd5b50611277806100206000396000f3fe608060405234801561001057600080fd5b506004361061004c5760003560e01c80635325613514610051578063aefedbc21461006f578063e580339f1461008d578063f0312a37146100a9575b600080fd5b6100596100c5565b6040516100669190610f49565b60405180910390f35b6100776104b1565b6040516100849190610f49565b60405180910390f35b6100a760048036038101906100a29190610d11565b610907565b005b6100c360048036038101906100be9190610d65565b610a94565b005b60606000808054905067ffffffffffffffff81111561010d577f4e487b7100000000000000000000000000000000000000000000000000000000600052604160045260246000fd5b60405190808252806020026020018201604052801561014657816020015b610133610b9c565b81526020019060019003908161012b5790505b5090506000805b600080549050811015610385576000151560008281548110610198577f4e487b7100000000000000000000000000000000000000000000000000000000600052603260045260246000fd5b906000526020600020906004020160030160009054906101000a900460ff161515141561037257600081815481106101f9577f4e487b7100000000000000000000000000000000000000000000000000000000600052603260045260246000fd5b9060005260206000209060040201604051806080016040529081600082015481526020016001820160009054906101000a900473ffffffffffffffffffffffffffffffffffffffff1673ffffffffffffffffffffffffffffffffffffffff1673ffffffffffffffffffffffffffffffffffffffff168152602001600282018054610282906110c9565b80601f01602080910402602001604051908101604052809291908181526020018280546102ae906110c9565b80156102fb5780601f106102d0576101008083540402835291602001916102fb565b820191906000526020600020905b8154815290600101906020018083116102de57829003601f168201915b505050505081526020016003820160009054906101000a900460ff161515151581525050838381518110610358577f4e487b7100000000000000000000000000000000000000000000000000000000600052603260045260246000fd5b6020026020010181905250818061036e9061112c565b9250505b808061037d9061112c565b91505061014d565b5060008167ffffffffffffffff8111156103c8577f4e487b7100000000000000000000000000000000000000000000000000000000600052604160045260246000fd5b60405190808252806020026020018201604052801561040157816020015b6103ee610b9c565b8152602001906001900390816103e65790505b50905060005b828110156104a757838181518110610448577f4e487b7100000000000000000000000000000000000000000000000000000000600052603260045260246000fd5b6020026020010151828281518110610489577f4e487b7100000000000000000000000000000000000000000000000000000000600052603260045260246000fd5b6020026020010181905250808061049f9061112c565b915050610407565b5080935050505090565b60606000808054905067ffffffffffffffff8111156104f9577f4e487b7100000000000000000000000000000000000000000000000000000000600052604160045260246000fd5b60405190808252806020026020018201604052801561053257816020015b61051f610b9c565b8152602001906001900390816105175790505b5090506000805b6000805490508110156107db573373ffffffffffffffffffffffffffffffffffffffff166001600083815260200190815260200160002060009054906101000a900473ffffffffffffffffffffffffffffffffffffffff1673ffffffffffffffffffffffffffffffffffffffff16148015610610575060001515600082815481106105ed577f4e487b7100000000000000000000000000000000000000000000000000000000600052603260045260246000fd5b906000526020600020906004020160030160009054906101000a900460ff161515145b156107c8576000818154811061064f577f4e487b7100000000000000000000000000000000000000000000000000000000600052603260045260246000fd5b9060005260206000209060040201604051806080016040529081600082015481526020016001820160009054906101000a900473ffffffffffffffffffffffffffffffffffffffff1673ffffffffffffffffffffffffffffffffffffffff1673ffffffffffffffffffffffffffffffffffffffff1681526020016002820180546106d8906110c9565b80601f0160208091040260200160405190810160405280929190818152602001828054610704906110c9565b80156107515780601f1061072657610100808354040283529160200191610751565b820191906000526020600020905b81548152906001019060200180831161073457829003601f168201915b505050505081526020016003820160009054906101000a900460ff1615151515815250508383815181106107ae577f4e487b7100000000000000000000000000000000000000000000000000000000600052603260045260246000fd5b602002602001018190525081806107c49061112c565b9250505b80806107d39061112c565b915050610539565b5060008167ffffffffffffffff81111561081e577f4e487b7100000000000000000000000000000000000000000000000000000000600052604160045260246000fd5b60405190808252806020026020018201604052801561085757816020015b610844610b9c565b81526020019060019003908161083c5790505b50905060005b828110156108fd5783818151811061089e577f4e487b7100000000000000000000000000000000000000000000000000000000600052603260045260246000fd5b60200260200101518282815181106108df577f4e487b7100000000000000000000000000000000000000000000000000000000600052603260045260246000fd5b602002602001018190525080806108f59061112c565b91505061085d565b5080935050505090565b600080805490509050600060405180608001604052808381526020013373ffffffffffffffffffffffffffffffffffffffff16815260200185815260200184151581525090806001815401808255809150506001900390600052602060002090600402016000909190919091506000820151816000015560208201518160010160006101000a81548173ffffffffffffffffffffffffffffffffffffffff021916908373ffffffffffffffffffffffffffffffffffffffff16021790555060408201518160020190805190602001906109e1929190610bdc565b5060608201518160030160006101000a81548160ff0219169083151502179055505050336001600083815260200190815260200160002060006101000a81548173ffffffffffffffffffffffffffffffffffffffff021916908373ffffffffffffffffffffffffffffffffffffffff1602179055507f8b2db9b424f26463510ef5b02c16f2465836b52081b51d2112ec76102053bdea3382604051610a87929190610f20565b60405180910390a1505050565b3373ffffffffffffffffffffffffffffffffffffffff166001600084815260200190815260200160002060009054906101000a900473ffffffffffffffffffffffffffffffffffffffff1673ffffffffffffffffffffffffffffffffffffffff161415610b98578060008381548110610b36577f4e487b7100000000000000000000000000000000000000000000000000000000600052603260045260246000fd5b906000526020600020906004020160030160006101000a81548160ff0219169083151502179055507f2430f837dd2fb40e08c064be9db3d0cf2a7a21f8fe716a2a41787dafc66a7e2a8282604051610b8f929190610f6b565b60405180910390a15b5050565b604051806080016040528060008152602001600073ffffffffffffffffffffffffffffffffffffffff168152602001606081526020016000151581525090565b828054610be8906110c9565b90600052602060002090601f016020900481019282610c0a5760008555610c51565b82601f10610c2357805160ff1916838001178555610c51565b82800160010185558215610c51579182015b82811115610c50578251825591602001919060010190610c35565b5b509050610c5e9190610c62565b5090565b5b80821115610c7b576000816000905550600101610c63565b5090565b6000610c92610c8d84610fb9565b610f94565b905082815260208101848484011115610caa57600080fd5b610cb5848285611087565b509392505050565b600081359050610ccc81611213565b92915050565b600082601f830112610ce357600080fd5b8135610cf3848260208601610c7f565b91505092915050565b600081359050610d0b8161122a565b92915050565b60008060408385031215610d2457600080fd5b600083013567ffffffffffffffff811115610d3e57600080fd5b610d4a85828601610cd2565b9250506020610d5b85828601610cbd565b9150509250929050565b60008060408385031215610d7857600080fd5b6000610d8685828601610cfc565b9250506020610d9785828601610cbd565b9150509250929050565b6000610dad8383610e9f565b905092915050565b610dbe8161103f565b82525050565b610dcd8161103f565b82525050565b6000610dde82610ffa565b610de8818561101d565b935083602082028501610dfa85610fea565b8060005b85811015610e365784840389528151610e178582610da1565b9450610e2283611010565b925060208a01995050600181019050610dfe565b50829750879550505050505092915050565b610e5181611051565b82525050565b610e6081611051565b82525050565b6000610e7182611005565b610e7b818561102e565b9350610e8b818560208601611096565b610e9481611202565b840191505092915050565b6000608083016000830151610eb76000860182610f02565b506020830151610eca6020860182610db5565b5060408301518482036040860152610ee28282610e66565b9150506060830151610ef76060860182610e48565b508091505092915050565b610f0b8161107d565b82525050565b610f1a8161107d565b82525050565b6000604082019050610f356000830185610dc4565b610f426020830184610f11565b9392505050565b60006020820190508181036000830152610f638184610dd3565b905092915050565b6000604082019050610f806000830185610f11565b610f8d6020830184610e57565b9392505050565b6000610f9e610faf565b9050610faa82826110fb565b919050565b6000604051905090565b600067ffffffffffffffff821115610fd457610fd36111d3565b5b610fdd82611202565b9050602081019050919050565b6000819050602082019050919050565b600081519050919050565b600081519050919050565b6000602082019050919050565b600082825260208201905092915050565b600082825260208201905092915050565b600061104a8261105d565b9050919050565b60008115159050919050565b600073ffffffffffffffffffffffffffffffffffffffff82169050919050565b6000819050919050565b82818337600083830152505050565b60005b838110156110b4578082015181840152602081019050611099565b838111156110c3576000848401525b50505050565b600060028204905060018216806110e157607f821691505b602082108114156110f5576110f46111a4565b5b50919050565b61110482611202565b810181811067ffffffffffffffff82111715611123576111226111d3565b5b80604052505050565b60006111378261107d565b91507fffffffffffffffffffffffffffffffffffffffffffffffffffffffffffffffff82141561116a57611169611175565b5b600182019050919050565b7f4e487b7100000000000000000000000000000000000000000000000000000000600052601160045260246000fd5b7f4e487b7100000000000000000000000000000000000000000000000000000000600052602260045260246000fd5b7f4e487b7100000000000000000000000000000000000000000000000000000000600052604160045260246000fd5b6000601f19601f8301169050919050565b61121c81611051565b811461122757600080fd5b50565b6112338161107d565b811461123e57600080fd5b5056fea2646970667358221220da63aff0bdab4e98e8a2d275d516ff9a94be8abf9c97d202f063474e40bb81e164736f6c63430008040033",
					"opcodes": "PUSH1 0x80 PUSH1 0x40 MSTORE CALLVALUE DUP1 ISZERO PUSH2 0x10 JUMPI PUSH1 0x0 DUP1 REVERT JUMPDEST POP PUSH2 0x1277 DUP1 PUSH2 0x20 PUSH1 0x0 CODECOPY PUSH1 0x0 RETURN INVALID PUSH1 0x80 PUSH1 0x40 MSTORE CALLVALUE DUP1 ISZERO PUSH2 0x10 JUMPI PUSH1 0x0 DUP1 REVERT JUMPDEST POP PUSH1 0x4 CALLDATASIZE LT PUSH2 0x4C JUMPI PUSH1 0x0 CALLDATALOAD PUSH1 0xE0 SHR DUP1 PUSH4 0x53256135 EQ PUSH2 0x51 JUMPI DUP1 PUSH4 0xAEFEDBC2 EQ PUSH2 0x6F JUMPI DUP1 PUSH4 0xE580339F EQ PUSH2 0x8D JUMPI DUP1 PUSH4 0xF0312A37 EQ PUSH2 0xA9 JUMPI JUMPDEST PUSH1 0x0 DUP1 REVERT JUMPDEST PUSH2 0x59 PUSH2 0xC5 JUMP JUMPDEST PUSH1 0x40 MLOAD PUSH2 0x66 SWAP2 SWAP1 PUSH2 0xF49 JUMP JUMPDEST PUSH1 0x40 MLOAD DUP1 SWAP2 SUB SWAP1 RETURN JUMPDEST PUSH2 0x77 PUSH2 0x4B1 JUMP JUMPDEST PUSH1 0x40 MLOAD PUSH2 0x84 SWAP2 SWAP1 PUSH2 0xF49 JUMP JUMPDEST PUSH1 0x40 MLOAD DUP1 SWAP2 SUB SWAP1 RETURN JUMPDEST PUSH2 0xA7 PUSH1 0x4 DUP1 CALLDATASIZE SUB DUP2 ADD SWAP1 PUSH2 0xA2 SWAP2 SWAP1 PUSH2 0xD11 JUMP JUMPDEST PUSH2 0x907 JUMP JUMPDEST STOP JUMPDEST PUSH2 0xC3 PUSH1 0x4 DUP1 CALLDATASIZE SUB DUP2 ADD SWAP1 PUSH2 0xBE SWAP2 SWAP1 PUSH2 0xD65 JUMP JUMPDEST PUSH2 0xA94 JUMP JUMPDEST STOP JUMPDEST PUSH1 0x60 PUSH1 0x0 DUP1 DUP1 SLOAD SWAP1 POP PUSH8 0xFFFFFFFFFFFFFFFF DUP2 GT ISZERO PUSH2 0x10D JUMPI PUSH32 0x4E487B7100000000000000000000000000000000000000000000000000000000 PUSH1 0x0 MSTORE PUSH1 0x41 PUSH1 0x4 MSTORE PUSH1 0x24 PUSH1 0x0 REVERT JUMPDEST PUSH1 0x40 MLOAD SWAP1 DUP1 DUP3 MSTORE DUP1 PUSH1 0x20 MUL PUSH1 0x20 ADD DUP3 ADD PUSH1 0x40 MSTORE DUP1 ISZERO PUSH2 0x146 JUMPI DUP2 PUSH1 0x20 ADD JUMPDEST PUSH2 0x133 PUSH2 0xB9C JUMP JUMPDEST DUP2 MSTORE PUSH1 0x20 ADD SWAP1 PUSH1 0x1 SWAP1 SUB SWAP1 DUP2 PUSH2 0x12B JUMPI SWAP1 POP JUMPDEST POP SWAP1 POP PUSH1 0x0 DUP1 JUMPDEST PUSH1 0x0 DUP1 SLOAD SWAP1 POP DUP2 LT ISZERO PUSH2 0x385 JUMPI PUSH1 0x0 ISZERO ISZERO PUSH1 0x0 DUP3 DUP2 SLOAD DUP2 LT PUSH2 0x198 JUMPI PUSH32 0x4E487B7100000000000000000000000000000000000000000000000000000000 PUSH1 0x0 MSTORE PUSH1 0x32 PUSH1 0x4 MSTORE PUSH1 0x24 PUSH1 0x0 REVERT JUMPDEST SWAP1 PUSH1 0x0 MSTORE PUSH1 0x20 PUSH1 0x0 KECCAK256 SWAP1 PUSH1 0x4 MUL ADD PUSH1 0x3 ADD PUSH1 0x0 SWAP1 SLOAD SWAP1 PUSH2 0x100 EXP SWAP1 DIV PUSH1 0xFF AND ISZERO ISZERO EQ ISZERO PUSH2 0x372 JUMPI PUSH1 0x0 DUP2 DUP2 SLOAD DUP2 LT PUSH2 0x1F9 JUMPI PUSH32 0x4E487B7100000000000000000000000000000000000000000000000000000000 PUSH1 0x0 MSTORE PUSH1 0x32 PUSH1 0x4 MSTORE PUSH1 0x24 PUSH1 0x0 REVERT JUMPDEST SWAP1 PUSH1 0x0 MSTORE PUSH1 0x20 PUSH1 0x0 KECCAK256 SWAP1 PUSH1 0x4 MUL ADD PUSH1 0x40 MLOAD DUP1 PUSH1 0x80 ADD PUSH1 0x40 MSTORE SWAP1 DUP2 PUSH1 0x0 DUP3 ADD SLOAD DUP2 MSTORE PUSH1 0x20 ADD PUSH1 0x1 DUP3 ADD PUSH1 0x0 SWAP1 SLOAD SWAP1 PUSH2 0x100 EXP SWAP1 DIV PUSH20 0xFFFFFFFFFFFFFFFFFFFFFFFFFFFFFFFFFFFFFFFF AND PUSH20 0xFFFFFFFFFFFFFFFFFFFFFFFFFFFFFFFFFFFFFFFF AND PUSH20 0xFFFFFFFFFFFFFFFFFFFFFFFFFFFFFFFFFFFFFFFF AND DUP2 MSTORE PUSH1 0x20 ADD PUSH1 0x2 DUP3 ADD DUP1 SLOAD PUSH2 0x282 SWAP1 PUSH2 0x10C9 JUMP JUMPDEST DUP1 PUSH1 0x1F ADD PUSH1 0x20 DUP1 SWAP2 DIV MUL PUSH1 0x20 ADD PUSH1 0x40 MLOAD SWAP1 DUP2 ADD PUSH1 0x40 MSTORE DUP1 SWAP3 SWAP2 SWAP1 DUP2 DUP2 MSTORE PUSH1 0x20 ADD DUP3 DUP1 SLOAD PUSH2 0x2AE SWAP1 PUSH2 0x10C9 JUMP JUMPDEST DUP1 ISZERO PUSH2 0x2FB JUMPI DUP1 PUSH1 0x1F LT PUSH2 0x2D0 JUMPI PUSH2 0x100 DUP1 DUP4 SLOAD DIV MUL DUP4 MSTORE SWAP2 PUSH1 0x20 ADD SWAP2 PUSH2 0x2FB JUMP JUMPDEST DUP3 ADD SWAP2 SWAP1 PUSH1 0x0 MSTORE PUSH1 0x20 PUSH1 0x0 KECCAK256 SWAP1 JUMPDEST DUP2 SLOAD DUP2 MSTORE SWAP1 PUSH1 0x1 ADD SWAP1 PUSH1 0x20 ADD DUP1 DUP4 GT PUSH2 0x2DE JUMPI DUP3 SWAP1 SUB PUSH1 0x1F AND DUP3 ADD SWAP2 JUMPDEST POP POP POP POP POP DUP2 MSTORE PUSH1 0x20 ADD PUSH1 0x3 DUP3 ADD PUSH1 0x0 SWAP1 SLOAD SWAP1 PUSH2 0x100 EXP SWAP1 DIV PUSH1 0xFF AND ISZERO ISZERO ISZERO ISZERO DUP2 MSTORE POP POP DUP4 DUP4 DUP2 MLOAD DUP2 LT PUSH2 0x358 JUMPI PUSH32 0x4E487B7100000000000000000000000000000000000000000000000000000000 PUSH1 0x0 MSTORE PUSH1 0x32 PUSH1 0x4 MSTORE PUSH1 0x24 PUSH1 0x0 REVERT JUMPDEST PUSH1 0x20 MUL PUSH1 0x20 ADD ADD DUP2 SWAP1 MSTORE POP DUP2 DUP1 PUSH2 0x36E SWAP1 PUSH2 0x112C JUMP JUMPDEST SWAP3 POP POP JUMPDEST DUP1 DUP1 PUSH2 0x37D SWAP1 PUSH2 0x112C JUMP JUMPDEST SWAP2 POP POP PUSH2 0x14D JUMP JUMPDEST POP PUSH1 0x0 DUP2 PUSH8 0xFFFFFFFFFFFFFFFF DUP2 GT ISZERO PUSH2 0x3C8 JUMPI PUSH32 0x4E487B7100000000000000000000000000000000000000000000000000000000 PUSH1 0x0 MSTORE PUSH1 0x41 PUSH1 0x4 MSTORE PUSH1 0x24 PUSH1 0x0 REVERT JUMPDEST PUSH1 0x40 MLOAD SWAP1 DUP1 DUP3 MSTORE DUP1 PUSH1 0x20 MUL PUSH1 0x20 ADD DUP3 ADD PUSH1 0x40 MSTORE DUP1 ISZERO PUSH2 0x401 JUMPI DUP2 PUSH1 0x20 ADD JUMPDEST PUSH2 0x3EE PUSH2 0xB9C JUMP JUMPDEST DUP2 MSTORE PUSH1 0x20 ADD SWAP1 PUSH1 0x1 SWAP1 SUB SWAP1 DUP2 PUSH2 0x3E6 JUMPI SWAP1 POP JUMPDEST POP SWAP1 POP PUSH1 0x0 JUMPDEST DUP3 DUP2 LT ISZERO PUSH2 0x4A7 JUMPI DUP4 DUP2 DUP2 MLOAD DUP2 LT PUSH2 0x448 JUMPI PUSH32 0x4E487B7100000000000000000000000000000000000000000000000000000000 PUSH1 0x0 MSTORE PUSH1 0x32 PUSH1 0x4 MSTORE PUSH1 0x24 PUSH1 0x0 REVERT JUMPDEST PUSH1 0x20 MUL PUSH1 0x20 ADD ADD MLOAD DUP3 DUP3 DUP2 MLOAD DUP2 LT PUSH2 0x489 JUMPI PUSH32 0x4E487B7100000000000000000000000000000000000000000000000000000000 PUSH1 0x0 MSTORE PUSH1 0x32 PUSH1 0x4 MSTORE PUSH1 0x24 PUSH1 0x0 REVERT JUMPDEST PUSH1 0x20 MUL PUSH1 0x20 ADD ADD DUP2 SWAP1 MSTORE POP DUP1 DUP1 PUSH2 0x49F SWAP1 PUSH2 0x112C JUMP JUMPDEST SWAP2 POP POP PUSH2 0x407 JUMP JUMPDEST POP DUP1 SWAP4 POP POP POP POP SWAP1 JUMP JUMPDEST PUSH1 0x60 PUSH1 0x0 DUP1 DUP1 SLOAD SWAP1 POP PUSH8 0xFFFFFFFFFFFFFFFF DUP2 GT ISZERO PUSH2 0x4F9 JUMPI PUSH32 0x4E487B7100000000000000000000000000000000000000000000000000000000 PUSH1 0x0 MSTORE PUSH1 0x41 PUSH1 0x4 MSTORE PUSH1 0x24 PUSH1 0x0 REVERT JUMPDEST PUSH1 0x40 MLOAD SWAP1 DUP1 DUP3 MSTORE DUP1 PUSH1 0x20 MUL PUSH1 0x20 ADD DUP3 ADD PUSH1 0x40 MSTORE DUP1 ISZERO PUSH2 0x532 JUMPI DUP2 PUSH1 0x20 ADD JUMPDEST PUSH2 0x51F PUSH2 0xB9C JUMP JUMPDEST DUP2 MSTORE PUSH1 0x20 ADD SWAP1 PUSH1 0x1 SWAP1 SUB SWAP1 DUP2 PUSH2 0x517 JUMPI SWAP1 POP JUMPDEST POP SWAP1 POP PUSH1 0x0 DUP1 JUMPDEST PUSH1 0x0 DUP1 SLOAD SWAP1 POP DUP2 LT ISZERO PUSH2 0x7DB JUMPI CALLER PUSH20 0xFFFFFFFFFFFFFFFFFFFFFFFFFFFFFFFFFFFFFFFF AND PUSH1 0x1 PUSH1 0x0 DUP4 DUP2 MSTORE PUSH1 0x20 ADD SWAP1 DUP2 MSTORE PUSH1 0x20 ADD PUSH1 0x0 KECCAK256 PUSH1 0x0 SWAP1 SLOAD SWAP1 PUSH2 0x100 EXP SWAP1 DIV PUSH20 0xFFFFFFFFFFFFFFFFFFFFFFFFFFFFFFFFFFFFFFFF AND PUSH20 0xFFFFFFFFFFFFFFFFFFFFFFFFFFFFFFFFFFFFFFFF AND EQ DUP1 ISZERO PUSH2 0x610 JUMPI POP PUSH1 0x0 ISZERO ISZERO PUSH1 0x0 DUP3 DUP2 SLOAD DUP2 LT PUSH2 0x5ED JUMPI PUSH32 0x4E487B7100000000000000000000000000000000000000000000000000000000 PUSH1 0x0 MSTORE PUSH1 0x32 PUSH1 0x4 MSTORE PUSH1 0x24 PUSH1 0x0 REVERT JUMPDEST SWAP1 PUSH1 0x0 MSTORE PUSH1 0x20 PUSH1 0x0 KECCAK256 SWAP1 PUSH1 0x4 MUL ADD PUSH1 0x3 ADD PUSH1 0x0 SWAP1 SLOAD SWAP1 PUSH2 0x100 EXP SWAP1 DIV PUSH1 0xFF AND ISZERO ISZERO EQ JUMPDEST ISZERO PUSH2 0x7C8 JUMPI PUSH1 0x0 DUP2 DUP2 SLOAD DUP2 LT PUSH2 0x64F JUMPI PUSH32 0x4E487B7100000000000000000000000000000000000000000000000000000000 PUSH1 0x0 MSTORE PUSH1 0x32 PUSH1 0x4 MSTORE PUSH1 0x24 PUSH1 0x0 REVERT JUMPDEST SWAP1 PUSH1 0x0 MSTORE PUSH1 0x20 PUSH1 0x0 KECCAK256 SWAP1 PUSH1 0x4 MUL ADD PUSH1 0x40 MLOAD DUP1 PUSH1 0x80 ADD PUSH1 0x40 MSTORE SWAP1 DUP2 PUSH1 0x0 DUP3 ADD SLOAD DUP2 MSTORE PUSH1 0x20 ADD PUSH1 0x1 DUP3 ADD PUSH1 0x0 SWAP1 SLOAD SWAP1 PUSH2 0x100 EXP SWAP1 DIV PUSH20 0xFFFFFFFFFFFFFFFFFFFFFFFFFFFFFFFFFFFFFFFF AND PUSH20 0xFFFFFFFFFFFFFFFFFFFFFFFFFFFFFFFFFFFFFFFF AND PUSH20 0xFFFFFFFFFFFFFFFFFFFFFFFFFFFFFFFFFFFFFFFF AND DUP2 MSTORE PUSH1 0x20 ADD PUSH1 0x2 DUP3 ADD DUP1 SLOAD PUSH2 0x6D8 SWAP1 PUSH2 0x10C9 JUMP JUMPDEST DUP1 PUSH1 0x1F ADD PUSH1 0x20 DUP1 SWAP2 DIV MUL PUSH1 0x20 ADD PUSH1 0x40 MLOAD SWAP1 DUP2 ADD PUSH1 0x40 MSTORE DUP1 SWAP3 SWAP2 SWAP1 DUP2 DUP2 MSTORE PUSH1 0x20 ADD DUP3 DUP1 SLOAD PUSH2 0x704 SWAP1 PUSH2 0x10C9 JUMP JUMPDEST DUP1 ISZERO PUSH2 0x751 JUMPI DUP1 PUSH1 0x1F LT PUSH2 0x726 JUMPI PUSH2 0x100 DUP1 DUP4 SLOAD DIV MUL DUP4 MSTORE SWAP2 PUSH1 0x20 ADD SWAP2 PUSH2 0x751 JUMP JUMPDEST DUP3 ADD SWAP2 SWAP1 PUSH1 0x0 MSTORE PUSH1 0x20 PUSH1 0x0 KECCAK256 SWAP1 JUMPDEST DUP2 SLOAD DUP2 MSTORE SWAP1 PUSH1 0x1 ADD SWAP1 PUSH1 0x20 ADD DUP1 DUP4 GT PUSH2 0x734 JUMPI DUP3 SWAP1 SUB PUSH1 0x1F AND DUP3 ADD SWAP2 JUMPDEST POP POP POP POP POP DUP2 MSTORE PUSH1 0x20 ADD PUSH1 0x3 DUP3 ADD PUSH1 0x0 SWAP1 SLOAD SWAP1 PUSH2 0x100 EXP SWAP1 DIV PUSH1 0xFF AND ISZERO ISZERO ISZERO ISZERO DUP2 MSTORE POP POP DUP4 DUP4 DUP2 MLOAD DUP2 LT PUSH2 0x7AE JUMPI PUSH32 0x4E487B7100000000000000000000000000000000000000000000000000000000 PUSH1 0x0 MSTORE PUSH1 0x32 PUSH1 0x4 MSTORE PUSH1 0x24 PUSH1 0x0 REVERT JUMPDEST PUSH1 0x20 MUL PUSH1 0x20 ADD ADD DUP2 SWAP1 MSTORE POP DUP2 DUP1 PUSH2 0x7C4 SWAP1 PUSH2 0x112C JUMP JUMPDEST SWAP3 POP POP JUMPDEST DUP1 DUP1 PUSH2 0x7D3 SWAP1 PUSH2 0x112C JUMP JUMPDEST SWAP2 POP POP PUSH2 0x539 JUMP JUMPDEST POP PUSH1 0x0 DUP2 PUSH8 0xFFFFFFFFFFFFFFFF DUP2 GT ISZERO PUSH2 0x81E JUMPI PUSH32 0x4E487B7100000000000000000000000000000000000000000000000000000000 PUSH1 0x0 MSTORE PUSH1 0x41 PUSH1 0x4 MSTORE PUSH1 0x24 PUSH1 0x0 REVERT JUMPDEST PUSH1 0x40 MLOAD SWAP1 DUP1 DUP3 MSTORE DUP1 PUSH1 0x20 MUL PUSH1 0x20 ADD DUP3 ADD PUSH1 0x40 MSTORE DUP1 ISZERO PUSH2 0x857 JUMPI DUP2 PUSH1 0x20 ADD JUMPDEST PUSH2 0x844 PUSH2 0xB9C JUMP JUMPDEST DUP2 MSTORE PUSH1 0x20 ADD SWAP1 PUSH1 0x1 SWAP1 SUB SWAP1 DUP2 PUSH2 0x83C JUMPI SWAP1 POP JUMPDEST POP SWAP1 POP PUSH1 0x0 JUMPDEST DUP3 DUP2 LT ISZERO PUSH2 0x8FD JUMPI DUP4 DUP2 DUP2 MLOAD DUP2 LT PUSH2 0x89E JUMPI PUSH32 0x4E487B7100000000000000000000000000000000000000000000000000000000 PUSH1 0x0 MSTORE PUSH1 0x32 PUSH1 0x4 MSTORE PUSH1 0x24 PUSH1 0x0 REVERT JUMPDEST PUSH1 0x20 MUL PUSH1 0x20 ADD ADD MLOAD DUP3 DUP3 DUP2 MLOAD DUP2 LT PUSH2 0x8DF JUMPI PUSH32 0x4E487B7100000000000000000000000000000000000000000000000000000000 PUSH1 0x0 MSTORE PUSH1 0x32 PUSH1 0x4 MSTORE PUSH1 0x24 PUSH1 0x0 REVERT JUMPDEST PUSH1 0x20 MUL PUSH1 0x20 ADD ADD DUP2 SWAP1 MSTORE POP DUP1 DUP1 PUSH2 0x8F5 SWAP1 PUSH2 0x112C JUMP JUMPDEST SWAP2 POP POP PUSH2 0x85D JUMP JUMPDEST POP DUP1 SWAP4 POP POP POP POP SWAP1 JUMP JUMPDEST PUSH1 0x0 DUP1 DUP1 SLOAD SWAP1 POP SWAP1 POP PUSH1 0x0 PUSH1 0x40 MLOAD DUP1 PUSH1 0x80 ADD PUSH1 0x40 MSTORE DUP1 DUP4 DUP2 MSTORE PUSH1 0x20 ADD CALLER PUSH20 0xFFFFFFFFFFFFFFFFFFFFFFFFFFFFFFFFFFFFFFFF AND DUP2 MSTORE PUSH1 0x20 ADD DUP6 DUP2 MSTORE PUSH1 0x20 ADD DUP5 ISZERO ISZERO DUP2 MSTORE POP SWAP1 DUP1 PUSH1 0x1 DUP2 SLOAD ADD DUP1 DUP3 SSTORE DUP1 SWAP2 POP POP PUSH1 0x1 SWAP1 SUB SWAP1 PUSH1 0x0 MSTORE PUSH1 0x20 PUSH1 0x0 KECCAK256 SWAP1 PUSH1 0x4 MUL ADD PUSH1 0x0 SWAP1 SWAP2 SWAP1 SWAP2 SWAP1 SWAP2 POP PUSH1 0x0 DUP3 ADD MLOAD DUP2 PUSH1 0x0 ADD SSTORE PUSH1 0x20 DUP3 ADD MLOAD DUP2 PUSH1 0x1 ADD PUSH1 0x0 PUSH2 0x100 EXP DUP2 SLOAD DUP2 PUSH20 0xFFFFFFFFFFFFFFFFFFFFFFFFFFFFFFFFFFFFFFFF MUL NOT AND SWAP1 DUP4 PUSH20 0xFFFFFFFFFFFFFFFFFFFFFFFFFFFFFFFFFFFFFFFF AND MUL OR SWAP1 SSTORE POP PUSH1 0x40 DUP3 ADD MLOAD DUP2 PUSH1 0x2 ADD SWAP1 DUP1 MLOAD SWAP1 PUSH1 0x20 ADD SWAP1 PUSH2 0x9E1 SWAP3 SWAP2 SWAP1 PUSH2 0xBDC JUMP JUMPDEST POP PUSH1 0x60 DUP3 ADD MLOAD DUP2 PUSH1 0x3 ADD PUSH1 0x0 PUSH2 0x100 EXP DUP2 SLOAD DUP2 PUSH1 0xFF MUL NOT AND SWAP1 DUP4 ISZERO ISZERO MUL OR SWAP1 SSTORE POP POP POP CALLER PUSH1 0x1 PUSH1 0x0 DUP4 DUP2 MSTORE PUSH1 0x20 ADD SWAP1 DUP2 MSTORE PUSH1 0x20 ADD PUSH1 0x0 KECCAK256 PUSH1 0x0 PUSH2 0x100 EXP DUP2 SLOAD DUP2 PUSH20 0xFFFFFFFFFFFFFFFFFFFFFFFFFFFFFFFFFFFFFFFF MUL NOT AND SWAP1 DUP4 PUSH20 0xFFFFFFFFFFFFFFFFFFFFFFFFFFFFFFFFFFFFFFFF AND MUL OR SWAP1 SSTORE POP PUSH32 0x8B2DB9B424F26463510EF5B02C16F2465836B52081B51D2112EC76102053BDEA CALLER DUP3 PUSH1 0x40 MLOAD PUSH2 0xA87 SWAP3 SWAP2 SWAP1 PUSH2 0xF20 JUMP JUMPDEST PUSH1 0x40 MLOAD DUP1 SWAP2 SUB SWAP1 LOG1 POP POP POP JUMP JUMPDEST CALLER PUSH20 0xFFFFFFFFFFFFFFFFFFFFFFFFFFFFFFFFFFFFFFFF AND PUSH1 0x1 PUSH1 0x0 DUP5 DUP2 MSTORE PUSH1 0x20 ADD SWAP1 DUP2 MSTORE PUSH1 0x20 ADD PUSH1 0x0 KECCAK256 PUSH1 0x0 SWAP1 SLOAD SWAP1 PUSH2 0x100 EXP SWAP1 DIV PUSH20 0xFFFFFFFFFFFFFFFFFFFFFFFFFFFFFFFFFFFFFFFF AND PUSH20 0xFFFFFFFFFFFFFFFFFFFFFFFFFFFFFFFFFFFFFFFF AND EQ ISZERO PUSH2 0xB98 JUMPI DUP1 PUSH1 0x0 DUP4 DUP2 SLOAD DUP2 LT PUSH2 0xB36 JUMPI PUSH32 0x4E487B7100000000000000000000000000000000000000000000000000000000 PUSH1 0x0 MSTORE PUSH1 0x32 PUSH1 0x4 MSTORE PUSH1 0x24 PUSH1 0x0 REVERT JUMPDEST SWAP1 PUSH1 0x0 MSTORE PUSH1 0x20 PUSH1 0x0 KECCAK256 SWAP1 PUSH1 0x4 MUL ADD PUSH1 0x3 ADD PUSH1 0x0 PUSH2 0x100 EXP DUP2 SLOAD DUP2 PUSH1 0xFF MUL NOT AND SWAP1 DUP4 ISZERO ISZERO MUL OR SWAP1 SSTORE POP PUSH32 0x2430F837DD2FB40E08C064BE9DB3D0CF2A7A21F8FE716A2A41787DAFC66A7E2A DUP3 DUP3 PUSH1 0x40 MLOAD PUSH2 0xB8F SWAP3 SWAP2 SWAP1 PUSH2 0xF6B JUMP JUMPDEST PUSH1 0x40 MLOAD DUP1 SWAP2 SUB SWAP1 LOG1 JUMPDEST POP POP JUMP JUMPDEST PUSH1 0x40 MLOAD DUP1 PUSH1 0x80 ADD PUSH1 0x40 MSTORE DUP1 PUSH1 0x0 DUP2 MSTORE PUSH1 0x20 ADD PUSH1 0x0 PUSH20 0xFFFFFFFFFFFFFFFFFFFFFFFFFFFFFFFFFFFFFFFF AND DUP2 MSTORE PUSH1 0x20 ADD PUSH1 0x60 DUP2 MSTORE PUSH1 0x20 ADD PUSH1 0x0 ISZERO ISZERO DUP2 MSTORE POP SWAP1 JUMP JUMPDEST DUP3 DUP1 SLOAD PUSH2 0xBE8 SWAP1 PUSH2 0x10C9 JUMP JUMPDEST SWAP1 PUSH1 0x0 MSTORE PUSH1 0x20 PUSH1 0x0 KECCAK256 SWAP1 PUSH1 0x1F ADD PUSH1 0x20 SWAP1 DIV DUP2 ADD SWAP3 DUP3 PUSH2 0xC0A JUMPI PUSH1 0x0 DUP6 SSTORE PUSH2 0xC51 JUMP JUMPDEST DUP3 PUSH1 0x1F LT PUSH2 0xC23 JUMPI DUP1 MLOAD PUSH1 0xFF NOT AND DUP4 DUP1 ADD OR DUP6 SSTORE PUSH2 0xC51 JUMP JUMPDEST DUP3 DUP1 ADD PUSH1 0x1 ADD DUP6 SSTORE DUP3 ISZERO PUSH2 0xC51 JUMPI SWAP2 DUP3 ADD JUMPDEST DUP3 DUP2 GT ISZERO PUSH2 0xC50 JUMPI DUP3 MLOAD DUP3 SSTORE SWAP2 PUSH1 0x20 ADD SWAP2 SWAP1 PUSH1 0x1 ADD SWAP1 PUSH2 0xC35 JUMP JUMPDEST JUMPDEST POP SWAP1 POP PUSH2 0xC5E SWAP2 SWAP1 PUSH2 0xC62 JUMP JUMPDEST POP SWAP1 JUMP JUMPDEST JUMPDEST DUP1 DUP3 GT ISZERO PUSH2 0xC7B JUMPI PUSH1 0x0 DUP2 PUSH1 0x0 SWAP1 SSTORE POP PUSH1 0x1 ADD PUSH2 0xC63 JUMP JUMPDEST POP SWAP1 JUMP JUMPDEST PUSH1 0x0 PUSH2 0xC92 PUSH2 0xC8D DUP5 PUSH2 0xFB9 JUMP JUMPDEST PUSH2 0xF94 JUMP JUMPDEST SWAP1 POP DUP3 DUP2 MSTORE PUSH1 0x20 DUP2 ADD DUP5 DUP5 DUP5 ADD GT ISZERO PUSH2 0xCAA JUMPI PUSH1 0x0 DUP1 REVERT JUMPDEST PUSH2 0xCB5 DUP5 DUP3 DUP6 PUSH2 0x1087 JUMP JUMPDEST POP SWAP4 SWAP3 POP POP POP JUMP JUMPDEST PUSH1 0x0 DUP2 CALLDATALOAD SWAP1 POP PUSH2 0xCCC DUP2 PUSH2 0x1213 JUMP JUMPDEST SWAP3 SWAP2 POP POP JUMP JUMPDEST PUSH1 0x0 DUP3 PUSH1 0x1F DUP4 ADD SLT PUSH2 0xCE3 JUMPI PUSH1 0x0 DUP1 REVERT JUMPDEST DUP2 CALLDATALOAD PUSH2 0xCF3 DUP5 DUP3 PUSH1 0x20 DUP7 ADD PUSH2 0xC7F JUMP JUMPDEST SWAP2 POP POP SWAP3 SWAP2 POP POP JUMP JUMPDEST PUSH1 0x0 DUP2 CALLDATALOAD SWAP1 POP PUSH2 0xD0B DUP2 PUSH2 0x122A JUMP JUMPDEST SWAP3 SWAP2 POP POP JUMP JUMPDEST PUSH1 0x0 DUP1 PUSH1 0x40 DUP4 DUP6 SUB SLT ISZERO PUSH2 0xD24 JUMPI PUSH1 0x0 DUP1 REVERT JUMPDEST PUSH1 0x0 DUP4 ADD CALLDATALOAD PUSH8 0xFFFFFFFFFFFFFFFF DUP2 GT ISZERO PUSH2 0xD3E JUMPI PUSH1 0x0 DUP1 REVERT JUMPDEST PUSH2 0xD4A DUP6 DUP3 DUP7 ADD PUSH2 0xCD2 JUMP JUMPDEST SWAP3 POP POP PUSH1 0x20 PUSH2 0xD5B DUP6 DUP3 DUP7 ADD PUSH2 0xCBD JUMP JUMPDEST SWAP2 POP POP SWAP3 POP SWAP3 SWAP1 POP JUMP JUMPDEST PUSH1 0x0 DUP1 PUSH1 0x40 DUP4 DUP6 SUB SLT ISZERO PUSH2 0xD78 JUMPI PUSH1 0x0 DUP1 REVERT JUMPDEST PUSH1 0x0 PUSH2 0xD86 DUP6 DUP3 DUP7 ADD PUSH2 0xCFC JUMP JUMPDEST SWAP3 POP POP PUSH1 0x20 PUSH2 0xD97 DUP6 DUP3 DUP7 ADD PUSH2 0xCBD JUMP JUMPDEST SWAP2 POP POP SWAP3 POP SWAP3 SWAP1 POP JUMP JUMPDEST PUSH1 0x0 PUSH2 0xDAD DUP4 DUP4 PUSH2 0xE9F JUMP JUMPDEST SWAP1 POP SWAP3 SWAP2 POP POP JUMP JUMPDEST PUSH2 0xDBE DUP2 PUSH2 0x103F JUMP JUMPDEST DUP3 MSTORE POP POP JUMP JUMPDEST PUSH2 0xDCD DUP2 PUSH2 0x103F JUMP JUMPDEST DUP3 MSTORE POP POP JUMP JUMPDEST PUSH1 0x0 PUSH2 0xDDE DUP3 PUSH2 0xFFA JUMP JUMPDEST PUSH2 0xDE8 DUP2 DUP6 PUSH2 0x101D JUMP JUMPDEST SWAP4 POP DUP4 PUSH1 0x20 DUP3 MUL DUP6 ADD PUSH2 0xDFA DUP6 PUSH2 0xFEA JUMP JUMPDEST DUP1 PUSH1 0x0 JUMPDEST DUP6 DUP2 LT ISZERO PUSH2 0xE36 JUMPI DUP5 DUP5 SUB DUP10 MSTORE DUP2 MLOAD PUSH2 0xE17 DUP6 DUP3 PUSH2 0xDA1 JUMP JUMPDEST SWAP5 POP PUSH2 0xE22 DUP4 PUSH2 0x1010 JUMP JUMPDEST SWAP3 POP PUSH1 0x20 DUP11 ADD SWAP10 POP POP PUSH1 0x1 DUP2 ADD SWAP1 POP PUSH2 0xDFE JUMP JUMPDEST POP DUP3 SWAP8 POP DUP8 SWAP6 POP POP POP POP POP POP SWAP3 SWAP2 POP POP JUMP JUMPDEST PUSH2 0xE51 DUP2 PUSH2 0x1051 JUMP JUMPDEST DUP3 MSTORE POP POP JUMP JUMPDEST PUSH2 0xE60 DUP2 PUSH2 0x1051 JUMP JUMPDEST DUP3 MSTORE POP POP JUMP JUMPDEST PUSH1 0x0 PUSH2 0xE71 DUP3 PUSH2 0x1005 JUMP JUMPDEST PUSH2 0xE7B DUP2 DUP6 PUSH2 0x102E JUMP JUMPDEST SWAP4 POP PUSH2 0xE8B DUP2 DUP6 PUSH1 0x20 DUP7 ADD PUSH2 0x1096 JUMP JUMPDEST PUSH2 0xE94 DUP2 PUSH2 0x1202 JUMP JUMPDEST DUP5 ADD SWAP2 POP POP SWAP3 SWAP2 POP POP JUMP JUMPDEST PUSH1 0x0 PUSH1 0x80 DUP4 ADD PUSH1 0x0 DUP4 ADD MLOAD PUSH2 0xEB7 PUSH1 0x0 DUP7 ADD DUP3 PUSH2 0xF02 JUMP JUMPDEST POP PUSH1 0x20 DUP4 ADD MLOAD PUSH2 0xECA PUSH1 0x20 DUP7 ADD DUP3 PUSH2 0xDB5 JUMP JUMPDEST POP PUSH1 0x40 DUP4 ADD MLOAD DUP5 DUP3 SUB PUSH1 0x40 DUP7 ADD MSTORE PUSH2 0xEE2 DUP3 DUP3 PUSH2 0xE66 JUMP JUMPDEST SWAP2 POP POP PUSH1 0x60 DUP4 ADD MLOAD PUSH2 0xEF7 PUSH1 0x60 DUP7 ADD DUP3 PUSH2 0xE48 JUMP JUMPDEST POP DUP1 SWAP2 POP POP SWAP3 SWAP2 POP POP JUMP JUMPDEST PUSH2 0xF0B DUP2 PUSH2 0x107D JUMP JUMPDEST DUP3 MSTORE POP POP JUMP JUMPDEST PUSH2 0xF1A DUP2 PUSH2 0x107D JUMP JUMPDEST DUP3 MSTORE POP POP JUMP JUMPDEST PUSH1 0x0 PUSH1 0x40 DUP3 ADD SWAP1 POP PUSH2 0xF35 PUSH1 0x0 DUP4 ADD DUP6 PUSH2 0xDC4 JUMP JUMPDEST PUSH2 0xF42 PUSH1 0x20 DUP4 ADD DUP5 PUSH2 0xF11 JUMP JUMPDEST SWAP4 SWAP3 POP POP POP JUMP JUMPDEST PUSH1 0x0 PUSH1 0x20 DUP3 ADD SWAP1 POP DUP2 DUP2 SUB PUSH1 0x0 DUP4 ADD MSTORE PUSH2 0xF63 DUP2 DUP5 PUSH2 0xDD3 JUMP JUMPDEST SWAP1 POP SWAP3 SWAP2 POP POP JUMP JUMPDEST PUSH1 0x0 PUSH1 0x40 DUP3 ADD SWAP1 POP PUSH2 0xF80 PUSH1 0x0 DUP4 ADD DUP6 PUSH2 0xF11 JUMP JUMPDEST PUSH2 0xF8D PUSH1 0x20 DUP4 ADD DUP5 PUSH2 0xE57 JUMP JUMPDEST SWAP4 SWAP3 POP POP POP JUMP JUMPDEST PUSH1 0x0 PUSH2 0xF9E PUSH2 0xFAF JUMP JUMPDEST SWAP1 POP PUSH2 0xFAA DUP3 DUP3 PUSH2 0x10FB JUMP JUMPDEST SWAP2 SWAP1 POP JUMP JUMPDEST PUSH1 0x0 PUSH1 0x40 MLOAD SWAP1 POP SWAP1 JUMP JUMPDEST PUSH1 0x0 PUSH8 0xFFFFFFFFFFFFFFFF DUP3 GT ISZERO PUSH2 0xFD4 JUMPI PUSH2 0xFD3 PUSH2 0x11D3 JUMP JUMPDEST JUMPDEST PUSH2 0xFDD DUP3 PUSH2 0x1202 JUMP JUMPDEST SWAP1 POP PUSH1 0x20 DUP2 ADD SWAP1 POP SWAP2 SWAP1 POP JUMP JUMPDEST PUSH1 0x0 DUP2 SWAP1 POP PUSH1 0x20 DUP3 ADD SWAP1 POP SWAP2 SWAP1 POP JUMP JUMPDEST PUSH1 0x0 DUP2 MLOAD SWAP1 POP SWAP2 SWAP1 POP JUMP JUMPDEST PUSH1 0x0 DUP2 MLOAD SWAP1 POP SWAP2 SWAP1 POP JUMP JUMPDEST PUSH1 0x0 PUSH1 0x20 DUP3 ADD SWAP1 POP SWAP2 SWAP1 POP JUMP JUMPDEST PUSH1 0x0 DUP3 DUP3 MSTORE PUSH1 0x20 DUP3 ADD SWAP1 POP SWAP3 SWAP2 POP POP JUMP JUMPDEST PUSH1 0x0 DUP3 DUP3 MSTORE PUSH1 0x20 DUP3 ADD SWAP1 POP SWAP3 SWAP2 POP POP JUMP JUMPDEST PUSH1 0x0 PUSH2 0x104A DUP3 PUSH2 0x105D JUMP JUMPDEST SWAP1 POP SWAP2 SWAP1 POP JUMP JUMPDEST PUSH1 0x0 DUP2 ISZERO ISZERO SWAP1 POP SWAP2 SWAP1 POP JUMP JUMPDEST PUSH1 0x0 PUSH20 0xFFFFFFFFFFFFFFFFFFFFFFFFFFFFFFFFFFFFFFFF DUP3 AND SWAP1 POP SWAP2 SWAP1 POP JUMP JUMPDEST PUSH1 0x0 DUP2 SWAP1 POP SWAP2 SWAP1 POP JUMP JUMPDEST DUP3 DUP2 DUP4 CALLDATACOPY PUSH1 0x0 DUP4 DUP4 ADD MSTORE POP POP POP JUMP JUMPDEST PUSH1 0x0 JUMPDEST DUP4 DUP2 LT ISZERO PUSH2 0x10B4 JUMPI DUP1 DUP3 ADD MLOAD DUP2 DUP5 ADD MSTORE PUSH1 0x20 DUP2 ADD SWAP1 POP PUSH2 0x1099 JUMP JUMPDEST DUP4 DUP2 GT ISZERO PUSH2 0x10C3 JUMPI PUSH1 0x0 DUP5 DUP5 ADD MSTORE JUMPDEST POP POP POP POP JUMP JUMPDEST PUSH1 0x0 PUSH1 0x2 DUP3 DIV SWAP1 POP PUSH1 0x1 DUP3 AND DUP1 PUSH2 0x10E1 JUMPI PUSH1 0x7F DUP3 AND SWAP2 POP JUMPDEST PUSH1 0x20 DUP3 LT DUP2 EQ ISZERO PUSH2 0x10F5 JUMPI PUSH2 0x10F4 PUSH2 0x11A4 JUMP JUMPDEST JUMPDEST POP SWAP2 SWAP1 POP JUMP JUMPDEST PUSH2 0x1104 DUP3 PUSH2 0x1202 JUMP JUMPDEST DUP2 ADD DUP2 DUP2 LT PUSH8 0xFFFFFFFFFFFFFFFF DUP3 GT OR ISZERO PUSH2 0x1123 JUMPI PUSH2 0x1122 PUSH2 0x11D3 JUMP JUMPDEST JUMPDEST DUP1 PUSH1 0x40 MSTORE POP POP POP JUMP JUMPDEST PUSH1 0x0 PUSH2 0x1137 DUP3 PUSH2 0x107D JUMP JUMPDEST SWAP2 POP PUSH32 0xFFFFFFFFFFFFFFFFFFFFFFFFFFFFFFFFFFFFFFFFFFFFFFFFFFFFFFFFFFFFFFFF DUP3 EQ ISZERO PUSH2 0x116A JUMPI PUSH2 0x1169 PUSH2 0x1175 JUMP JUMPDEST JUMPDEST PUSH1 0x1 DUP3 ADD SWAP1 POP SWAP2 SWAP1 POP JUMP JUMPDEST PUSH32 0x4E487B7100000000000000000000000000000000000000000000000000000000 PUSH1 0x0 MSTORE PUSH1 0x11 PUSH1 0x4 MSTORE PUSH1 0x24 PUSH1 0x0 REVERT JUMPDEST PUSH32 0x4E487B7100000000000000000000000000000000000000000000000000000000 PUSH1 0x0 MSTORE PUSH1 0x22 PUSH1 0x4 MSTORE PUSH1 0x24 PUSH1 0x0 REVERT JUMPDEST PUSH32 0x4E487B7100000000000000000000000000000000000000000000000000000000 PUSH1 0x0 MSTORE PUSH1 0x41 PUSH1 0x4 MSTORE PUSH1 0x24 PUSH1 0x0 REVERT JUMPDEST PUSH1 0x0 PUSH1 0x1F NOT PUSH1 0x1F DUP4 ADD AND SWAP1 POP SWAP2 SWAP1 POP JUMP JUMPDEST PUSH2 0x121C DUP2 PUSH2 0x1051 JUMP JUMPDEST DUP2 EQ PUSH2 0x1227 JUMPI PUSH1 0x0 DUP1 REVERT JUMPDEST POP JUMP JUMPDEST PUSH2 0x1233 DUP2 PUSH2 0x107D JUMP JUMPDEST DUP2 EQ PUSH2 0x123E JUMPI PUSH1 0x0 DUP1 REVERT JUMPDEST POP JUMP INVALID LOG2 PUSH5 0x6970667358 0x22 SLT KECCAK256 0xDA PUSH4 0xAFF0BDAB 0x4E SWAP9 0xE8 LOG2 0xD2 PUSH22 0xD516FF9A94BE8ABF9C97D202F063474E40BB81E16473 PUSH16 0x6C634300080400330000000000000000 "
				},
				"gasEstimates": {
					"creation": {
						"codeDepositCost": "945400",
						"executionCost": "981",
						"totalCost": "946381"
					},
					"external": {
						"addTweet(string,bool)": "infinite",
						"deleteTweet(uint256,bool)": "infinite",
						"getAllTweets()": "infinite",
						"getMyTweets()": "infinite"
					}
				},
				"methodIdentifiers": {
					"addTweet(string,bool)": "e580339f",
					"deleteTweet(uint256,bool)": "f0312a37",
					"getAllTweets()": "53256135",
					"getMyTweets()": "aefedbc2"
				}
			},
			"storageLayout": {
				"storage": [
					{
						"astId": 26,
						"contract": "contracts/tweets.sol:TwitterContract",
						"label": "tweets",
						"offset": 0,
						"slot": "0",
						"type": "t_array(t_struct(Tweet)22_storage)dyn_storage"
					},
					{
						"astId": 30,
						"contract": "contracts/tweets.sol:TwitterContract",
						"label": "tweetToOwner",
						"offset": 0,
						"slot": "1",
						"type": "t_mapping(t_uint256,t_address)"
					}
				],
				"types": {
					"t_address": {
						"encoding": "inplace",
						"label": "address",
						"numberOfBytes": "20"
					},
					"t_array(t_struct(Tweet)22_storage)dyn_storage": {
						"base": "t_struct(Tweet)22_storage",
						"encoding": "dynamic_array",
						"label": "struct TwitterContract.Tweet[]",
						"numberOfBytes": "32"
					},
					"t_bool": {
						"encoding": "inplace",
						"label": "bool",
						"numberOfBytes": "1"
					},
					"t_mapping(t_uint256,t_address)": {
						"encoding": "mapping",
						"key": "t_uint256",
						"label": "mapping(uint256 => address)",
						"numberOfBytes": "32",
						"value": "t_address"
					},
					"t_string_storage": {
						"encoding": "bytes",
						"label": "string",
						"numberOfBytes": "32"
					},
					"t_struct(Tweet)22_storage": {
						"encoding": "inplace",
						"label": "struct TwitterContract.Tweet",
						"members": [
							{
								"astId": 15,
								"contract": "contracts/tweets.sol:TwitterContract",
								"label": "id",
								"offset": 0,
								"slot": "0",
								"type": "t_uint256"
							},
							{
								"astId": 17,
								"contract": "contracts/tweets.sol:TwitterContract",
								"label": "username",
								"offset": 0,
								"slot": "1",
								"type": "t_address"
							},
							{
								"astId": 19,
								"contract": "contracts/tweets.sol:TwitterContract",
								"label": "tweetText",
								"offset": 0,
								"slot": "2",
								"type": "t_string_storage"
							},
							{
								"astId": 21,
								"contract": "contracts/tweets.sol:TwitterContract",
								"label": "isDeleted",
								"offset": 0,
								"slot": "3",
								"type": "t_bool"
							}
						],
						"numberOfBytes": "128"
					},
					"t_uint256": {
						"encoding": "inplace",
						"label": "uint256",
						"numberOfBytes": "32"
					}
				}
			},
			"userdoc": {
				"kind": "user",
				"methods": {},
				"version": 1
			}
		}
	}
}